:020000040800F2
:1000000000000120D1370008153800081538000815
:1000100015380008153800081538000800000000E1
:10002000000000000000000000000000153800087B
:1000300015380008000000001538000815380008C1
:10004000153800081538000815380008153800085C
:10005000153800081538000815380008153800084C
:10006000153800081538000815380008153800083C
:10007000153800081538000815380008153800082C
:10008000153800081538000815380008153800081C
:10009000153800081538000815380008153800080C
:1000A00015380008153800081538000815380008FC
:1000B00015380008153800081538000815380008EC
:1000C00015380008153800081538000815380008DC
:1000D000153800085B1300081538000815380008AB
:1000E00015380008153800081538000815380008BC
:1000F00015380008153800081538000815380008AC
:10010000153800081538000815380008153800089B
:10011000153800081538000815380008153800088B
:10012000153800081538000815380008153800087B
:1001300000000000000000000000000000000000BF
:1001400000000000000000000000000000000000AF
:10015000000000000000000000000000000000009F
:10016000000000000000000000000000000000008F
:10017000000000000000000000000000000000007F
:10018000000000000000000000000000000000006F
:10019000000000000000000000000000000000005F
:1001A000000000000000000000000000000000004F
:1001B000000000000000000000000000000000003F
:1001C000000000000000000000000000000000002F
:1001D000000000000000000000000000000000001F
:0401E0005FF8E0F1F3
:1001E80010B5054C237833B9044B13B10448AFF369
:1001F80000800123237010BD58110020000000006A
:10020800E88F000808B5034B1BB103490348AFF357
:10021800008008BD000000005C110020E88F000885
:10022800154B002B08BF134B9D46A3F5803A0021C0
:100238008B460F461348144A121A03F0C7FD0F4B9A
:10024800002B00D098470E4B002B00D09847002079
:10025800002104000D000D48002802D00C4804F0CD
:100268003BF803F0EDFA2000290000F043F903F011
:10027800D7FA00BF000008000000000000000000DE
:10028800000000005811002084160020E1420008F8
:10029800ED42000880B483B000AF0346FB710E4BFB
:1002A8001B680D4A23F004031360FB79DB08DAB2FC
:1002B8000A4B1A70094B1B789BB21A465201D21A84
:1002C80092001344DB009AB2054B1A8000BF0C372A
:1002D800BD4680BC704700BF10E000E074110020EC
:1002E8007611002080B485B000AF7860124B1B787F
:1002F8001946124A7B6803FB01F353600F4B002237
:100308009A600E4B01221A600C4B1B68FB60FB685D
:1003180003F00103002B04D0FB6803F48033002BA7
:10032800F2D0064B00221A60044B00229A6000BFEC
:100338001437BD4680BC70477411002010E000E0FF
:1003480080B485B000AF0346FB80FB88124A128850
:100358001146124A01FB03F35360104B00229A60C6
:100368000E4B01221A600D4B1B68FB60FB6803F003
:100378000103002B04D0FB6803F48033002BF2D078
:10038800064B00221A60054B00229A6000BF143702
:10039800BD4680BC704700BF7611002010E000E029
:1003A80080B400AF194B9B69184A43F0040393616A
:1003B800164B9B69154A43F020039361144B5B6805
:1003C800134A23F00F035360114B5B68104A43F044
:1003D800030353600E4BDB680D4A43F48073D3600C
:1003E8000C4B1B680B4A23F470631360094B1B68A2
:1003F800084A43F440731360064BDB68054A43F030
:100408000403D36000BFBD4680BC704700100240A3
:10041800000801400014014080B400AF00BFBD4691
:1004280080BC704780B582B000AF102003F02CFA72
:1004380003467B607B680022DA607B6800229A6052
:100448007B6800225A607B6818460837BD4680BD25
:1004580080B483B000AF78607B685B68002B01D103
:10046800012300E0002318460C37BD4680BC7047C6
:1004780080B582B000AF786039603B683A685A60EE
:100488007B68DA683B681A607868FFF7E1FF034623
:10049800012B06D17B683A689A607B683A68DA6013
:1004A80006E07B68DB683A685A607B683A68DA601D
:1004B8007B685B685A1C7B685A6000BF0837BD467A
:1004C80080BD000080B500AF084B1B68074ADB43BE
:1004D8001360074B1B68064ADB43136040F6B830CD
:1004E800FFF72EFF0123184680BD00BFA00121425F
:1004F8008881224280B582B000AF00237B60002350
:100508003B60092000F07CFD4820FFF7C3FEFFF7A1
:1005180047FF4FF41651482000F04EFF00F0CCF88A
:100528000549064800F07AF8386000F009F8002319
:1005380018460837BD4680BD40860008CD0400082F
:1005480080B582B000AF0023FB710023BB7100238C
:10055800FB7129E0FA79184913465B001344DB0064
:100568000B4404331B78FF2B1BD1FA79124913462D
:100578005B001344DB000B4418331B689847FA7977
:100588000D4913465B001344DB000B440C331B6816
:10059800591C094813465B001344DB0003440C3321
:1005A8001960FB790133FB71FB791F2BD2D9BB7919
:1005B8000133BB71CBE700BF9012002080B400AFBD
:1005C80001231846BD4680BC704780B500AF00F0D7
:1005D8003BFB0123184680BD80B582B000AF0E4BAF
:1005E8001B681846FFF734FF0346012B01D100238F
:1005F8000DE0094B1B68DB687B607B689B683B6090
:100608003B681B683A6852681046984700231846AA
:100618000837BD4680BD00BF8811002080B483B074
:1006280000AF78603960224B1A68224913465B0094
:100638001344DB000B440433FF221A701C4B1A6866
:100648001C4913465B001344DB000B4414333A681F
:100658001A60174B1A68174913465B001344DB00EE
:100668000B4418337A681A60114B1A6811491346FB
:100678005B001344DB000B44083301221A600C4B67
:100688001A680C4913465B001344DB000B4405331E
:1006980001221A70064B1B680133054A1360044B8C
:1006A8001B68013B18460C37BD4680BC704700BF2D
:1006B800781100209012002080B500AF4FF44172ED
:1006C80000210F4803F082FB0E490F48FFF7A6FFF1
:1006D80002460E4B1A600B490D48FFF79FFF024672
:1006E8000C4B1A600C490D48FFF798FF02460C4B5B
:1006F8001A60FFF797FE02460A4B1A6000BF80BDDA
:10070800901200204C860008C50500087C110020C6
:10071800E10500088411002058860008D305000868
:10072800801100208811002080B483B000AF786069
:1007380039600D497A6813465B001344DB000B44AB
:1007480005331B78012B0AD107497A6813465B00E9
:100758001344DB000B4408333A681A6000BF00BF3B
:100768000C37BD4680BC70479012002080B584B01D
:1007780000AF786039607B68386898470346002B7B
:100788001AD1082003F080F80346FB60FB687A68FA
:100798001A60FB683A685A600C2003F075F8034643
:1007A800BB60BB68FA689A60064B1B68B968184654
:1007B800FFF75EFE002300E0012318461037BD4610
:1007C80080BD00BF8811002080B586B002AF786078
:1007D80039603A6807F10C03009300230021786818
:1007E80001F0C4FAFB6818461037BD4680BD0FB447
:1007F80080B582B000AF07F114037B607A6839696D
:10080800064803F0DFFC054800F08EFD00BF0837FE
:10081800BD46BDE8804004B0704700BFB01100205D
:1008280090B585B000AF786039603B68FB60FB68C5
:100838001C680F217868FFF7C7FF034623F0010300
:100848001A4621460648FFF7D2FFFB681B685A1C68
:10085800FB681A60002318461437BD4690BD00BFD8
:100868006886000880B582B000AF00237B60064828
:10087800FFF7BDFF3B1D1946044801F06DFE00BFA0
:100888000837BD4680BD00BF8886000829080008D3
:1008980080B586B000AF786000237B61184B1B6879
:1008A800013B3B610023FB600023FB721EE03A69B9
:1008B8007B69D31A5B087A691344FB601149FA68AB
:1008C8001346DB009B1A9B000B4404331B68194634
:1008D800786802F085F80346FB72FB7A002B03D098
:1008E800FB6801337B6101E0FB6805E07A693B69DD
:1008F8009A42DCD94FF0FF3318461837BD4680BD01
:10090800240000202800002080B483B000AF786065
:100918007B689B69112B01D1012300E00023184655
:100928000C37BD4680BC704780B483B000AF786098
:100938007B689B69122B01D1012306E07B689B69C8
:10094800142B01D1012300E0002318460C37BD46C3
:1009580080BC704780B584B000AF78600023FB731B
:10096800B7E06A4B1B881A46694B9B5C0D2B7CD100
:10097800664B1B885A1C674B83FB02139911D317CC
:10098800CB1AC82101FB03F3D31A614AD35C0A2BA3
:1009980045D15E4B1B881A465D4B002199545B4B31
:1009A8001B885A1C5B4B83FB02139911D317CB1A74
:1009B800C82101FB03F3D31A554A0021D154534BE4
:1009C8001B880133534A82FB03129111DA178A1AE2
:1009D800C82101FB02F29A1A92B24C4B1A804B4B77
:1009E8001B8801334B4A82FB03129111DA178A1ACA
:1009F800C82101FB02F29A1A92B2444B1A80464B64
:100A08001B781A46454B00219954434B1B780133F8
:100A1800DAB2414B1A70424B01221A7060E03B4B2C
:100A28001B881A463A4B00219954384B1B880133CE
:100A3800384A82FB03129111DA178A1AC82101FB7E
:100A480002F29A1A92B2314B1A80334B1B781A462B
:100A5800324B00219954304B1B780133DAB22E4BBC
:100A68001A702F4B01221A703AE0284B1B8819463E
:100A7800294B1B781A46264B595C284B9954264B10
:100A88001B782F2B0FD1244B1B781A46234B0021A0
:100A98009954214B1B780133DAB21F4B1A70204B43
:100AA80001221A701CE01C4B1B780133DAB21A4B76
:100AB8001A70164B1B880133164A82FB03129111D8
:100AC800DA178A1AC82101FB02F29A1A92B20F4B5E
:100AD8001A80144B1A880D4B1B889A427FF441AF39
:100AE8000F4B1B78012B0CD10C49786803F0F8FAEE
:100AF800094B1B78FB73084B00221A70084B002225
:100B08001A70FB7B18461037BD4680BD4C1200207A
:100B1800941500201F85EB51141200201812002094
:100B28004A1200204E12002090B589B002AF7860BA
:100B38000B46FB7000237B6100233B610023FB60B5
:100B4800FB78012B04D179683848FFF750FE6AE03A
:100B58007868FFF79DFE78617B69002B5EDB7A6918
:100B68001346DB009B1A9B00314A13441846FFF7D3
:100B7800DBFE0346012B18D12D497A691346DB00A9
:100B88009B1A9B000B440833186829497A69134655
:100B9800DB009B1A9B000B4408331B681B6802464A
:100BA80079682448FFF723FE3DE07A691346DB00A5
:100BB8009B1A9B001E4A13441846FFF7A5FE0346DE
:100BC800012B26D11A497A691346DB009B1A9B0030
:100BD8000B4408331B68FB6015497A691346DB0030
:100BE8009B1A9B000B4408331B681A467968124805
:100BF800FFF7FDFD00230093FC680023002200217D
:100C08000020A04738613A6939690C48FFF7EFFDC1
:100C180009E079680A48FFF7EAFD04E079680948BD
:100C2800FFF7E5FD00BF1C37BD4690BDA086000854
:100C380028000020A8860008C8860008DC8600086E
:100C4800EC860008FC86000880B58EB000AF002353
:100C580087F837303B1D32220021184603F0B6F8DA
:100C68003B1D1846FFF776FE034687F8373097F89E
:100C78003730002B0BD097F837203B1D114618460C
:100C8800FFF752FF0448FFF7B2FD00BF00E000BFC6
:100C98003837BD4680BD00BF1887000880B500AF53
:100CA8000348FFF7A4FD6FF01203184680BD00BF8C
:100CB8002487000820920008000000205811002016
:100CC800581100208416002080B483B000AF7860EB
:100CD80039603B6823F0604323F07F0304497A6856
:100CE80013438B6000BF0C37BD4680BC704700BF04
:100CF80000ED00E080B485B000AF0346FB71FB79DE
:100D0800DB4303F00703FB60FB681B02FB600D4B32
:100D1800DB68BB60BA684FF6FF031340BB60BB6873
:100D280043F0BF6343F40033BB60BA68FB68134306
:100D3800BB60044ABB68D36000BF1437BD4680BCA3
:100D4800704700BF00ED00E090B585B000AF0446E5
:100D5800084611461A462346FB710346BB710B46EB
:100D68007B7113463B713B791846FFF7C3FFFA794D
:100D78003B79C3F1040302FA03F3FB60BA793B79C8
:100D88000F2141FA03F313401A46FB681343FB6033
:100D9800FB6803F00F03FB60134A7B795B09D8B249
:100DA800034652F823307A7902F01F02012101FA32
:100DB80002F214460C4A0146234342F821300A4AFB
:100DC8007B79134493F80033D9B2FB68DBB21B017B
:100DD800DAB205487B790A43D2B2034483F8002388
:100DE80000BF1437BD4690BD00E100E080B485B077
:100DF80000AF0346FB710B46BB7113467B71BB7991
:100E08009B08FB73BB7903F00303DBB29B00BB7346
:100E1800294B9B69284A43F001039361274AFB7BCE
:100E2800023352F82320BB7B0F2101FA03F3DB4383
:100E380018462249FB7B0240023341F823201F4A0F
:100E4800FB7B023352F82320F979BB7B01FA03F3C9
:100E580018461A49FB7B0243023341F82320184BFA
:100E68001B68BA79012101FA02F21146144A0B43B0
:100E780013607B7903F00103002B09D0104BDB686A
:100E8800BA79012101FA02F211460D4A0B43D360E7
:100E98007B7903F00203002B09D0094B9B68BA79D0
:100EA800012101FA02F21146054A0B43936000BF83
:100EB8001437BD4680BC7047001002400000014056
:100EC8000004014080B500AF1C4B00221A611B4B87
:100ED8000022DA60194B14225A61184B00229A61D9
:100EE800164B0022DA61154B1B68144A43F00103C4
:100EF8001360124B5A681149114B13404B600F4B4A
:100F08001B680E4A23F0847323F4803313600B4B61
:100F18001B680A4A23F480231360084B5B68074A5E
:100F280023F4FE035360054B00229A6000214FF022
:100F38000060FFF7C9FE00BF80BD00BF001002407F
:100F48000000FFF880B400AF104B1B690F4A43F054
:100F5800040313610E4BDB690D4A43F08053D361E0
:100F68000C4B5B680B4A43F480735360094B1B6856
:100F7800084A43F004031360064B1B68054A43F014
:100F88000203136000BFBD4680BC704700ED00E05F
:100F9800001002400070004080B400AF034B044AC8
:100FA800DA6000BFBD4680BC704700BF00ED00E0BE
:100FB8000400FA0580B485B000AF0346FB71FB79E5
:100FC800FB60FB685B06FB600B4B9B690A4A43F0BE
:100FD80001039361094B5B68084A23F0E06353609F
:100FE800064B5A680549FB6813434B6000BF14372A
:100FF800BD4680BC704700BF0010024000000140A1
:1010080080B584B000AF0346FB710023FB73FFF784
:1010180059FF244B1B68234A43F48033136000BFF5
:10102800204B1B685B0C002BFAD01E4B4FF48062E0
:101038005A60FB79023BFB711A4B5B68FA799204A0
:101048001146184A0B435360164B5B68154A43F424
:1010580080335360144B1B68134A43F03203136008
:10106800104B1B680F4A43F08073136000BF0D4B91
:101078001B685B0E002BFAD00A4B5B68094A43F0E9
:101088000203536007E0074B5B689B08FB73FB7B1D
:1010980003F00303FB73FB7B022BF4D100BF103773
:1010A800BD4680BD001002400020024080B500AF60
:1010B800154B1B68144A43F001031360124B5A681E
:1010C8001149124B13404B600F4B1B680E4A23F01B
:1010D800847323F4803313600B4B1B680A4A23F490
:1010E80080231360084B5B68074A23F4FE035360B0
:1010F800054B4FF41F029A6000F078F8044B4FF04C
:1011080000629A6000BF80BD001002400000FFF836
:1011180000ED00E080B485B000AF0023FB60002341
:10112800BB6000237B602C4B5B6803F00C03FB6007
:10113800FB68042B07D0082B09D0002B33D1274B91
:10114800274A1A6033E0254B254A1A602FE0224BC4
:101158005B6803F47013BB601F4B5B6803F4803358
:101168007B60BB689B0C0233BB607B68002B06D19D
:10117800BB681C4A02FB03F3184A136017E0164BBE
:101188005B6803F40033002B06D0BB68154A02FBEA
:1011980003F3124A13600AE0BB68114A02FB03F327
:1011A8000E4A136003E00D4B0D4A1A6000BF0A4B4C
:1011B8005B681B0903F00F030B4AD35CDBB2FB60CF
:1011C800064B1A68FB6822FA03F3044A136000BF4F
:1011D8001437BD4680BC70470010024098070020B5
:1011E80000127A0000093D009C07002080B500AF7E
:1011F80000F002F800BF80BD80B483B000AF0023C8
:101208007B6000233B603A4B1B68394A43F48033C8
:101218001360374B1B6803F400333B607B68013372
:101228007B603B68002B03D17B68B3F5A06FF0D1DE
:101238002F4B1B6803F40033002B02D001233B60C3
:1012480001E000233B603B68012B4BD1294B1B6815
:10125800284A43F010031360264B1B68254A23F0E5
:1012680003031360234B1B68224A43F002031360F5
:101278001F4B1F4A5B6853601D4B1D4A5B685360D8
:101288001B4B5B681A4A43F480635360184B5B68D6
:10129800174A23F47C135360154B5B68144A43F4D4
:1012A800E8135360124B1B68114A43F080731360B4
:1012B80000BF0F4B1B6803F00073002BF9D00C4BD9
:1012C8005B680B4A23F003035360094B5B68084AC9
:1012D80043F00203536000BF054B5B6803F00C0347
:1012E800082BF9D100BF0C37BD4680BC704700BF42
:1012F800001002400020024080B483B000AF0346D3
:10130800FB7100BF074B1B889BB203F04003002B07
:10131800F8D0044BFA7992B29A8000BF0C37BD46D8
:1013280080BC70470038014080B582B000AF78605B
:1013380007E07B681B781846FFF7DEFF7B68013300
:101348007B607B681B78002BF3D100BF0837BD4654
:1013580080BD80B483B000AF134B1B889BB203F0F1
:101368002003002B1AD0104B9B889BB2FB710F4BAC
:101378001B8819460E4AFB7953540C4B1B880133C2
:101388000C4A82FB03129111DA178A1AC82101FB51
:1013980002F29A1A92B2054B1A8000BF00BF0C37AE
:1013A800BD4680BC704700BF003801404E12002087
:1013B800941500201F85EB5190B585B000AF78607B
:1013C80039607B683F4A02FB03F3184600F038F99E
:1013D80004463B681B01184600F032F903461946DB
:1013E800204600F039FA0346FB60F86800F0D0FAAE
:1013F80003467B817B89184600F026F90346194687
:10140800F86800F06BF803464FF08341184600F087
:101418006FF90346184600F0BBFA03463B817B8907
:101428001B017B817A893B8913447B81264B9B690D
:10143800254A43F004039361234B9B69224A43F4F2
:1014480080439361214B5B68204A23F47F63536098
:101458001E4B5B681D4A43F40B6353601A4BDB68F1
:10146800194A43F48043D360174BDB68164A23F4C8
:101478008043D360164A7B891381154B9B899BB2A5
:10148800134A43F4005343F00C039BB29381104B6F
:101498009B899BB20E4A43F480739BB293810C4B99
:1014A8009B899BB20A4A43F020039BB29381022393
:1014B800252203210320FFF747FC00BF1437BD4650
:1014C80090BD00BF40420F000010024000080140DC
:1014D8000038014080F0004002E000BF81F0004188
:1014E80042001FBF5FEA410392EA030F7FEA226CC2
:1014F8007FEA236C6AD04FEA1262D2EB1363C1BF52
:10150800D218414048404140B8BF5B42192B88BFC0
:10151800704710F0004F40F4000020F07F4018BFE3
:10152800404211F0004F41F4000121F07F4118BF03
:10153800494292EA030F3FD0A2F1010241FA03FCAB
:1015480010EB0C00C3F1200301FA03F100F0004393
:1015580002D5494260EB4000B0F5000F13D3B0F15B
:10156800807F06D340084FEA310102F10102FE2ACA
:1015780051D2B1F1004F40EBC25008BF20F001003A
:1015880040EA03007047490040EB000010F4000FE8
:10159800A2F10102EDD1B0FA80FCACF1080CB2EB7B
:1015A8000C0200FA0CF0AABF00EBC25052421843DA
:1015B800BCBFD0401843704792F0000F81F400017F
:1015C80006BF80F400000132013BB5E74FEA410352
:1015D8007FEA226C18BF7FEA236C21D092EA030FBE
:1015E80004D092F0000F08BF0846704790EA010F38
:1015F8001CBF0020704712F07F4F04D1400028BF65
:1016080040F00040704712F100723CBF00F5000046
:10161800704700F0004343F0FE4040F4000070477C
:101628007FEA226216BF08467FEA23630146420228
:1016380006BF5FEA412390EA010F40F4800070473B
:101648004FF0000304E000BF10F0004348BF4042E1
:101658005FEA000C08BF704743F0964301464FF01D
:1016680000001CE050EA010208BF70474FF0000379
:101678000AE000BF50EA010208BF704711F00043BA
:1016880002D5404261EB41015FEA010C02BF84468A
:101698000146002043F0B64308BFA3F18053A3F5E9
:1016A8000003BCFA8CF2083AA3EBC25310DB01FA30
:1016B80002FC634400FA02FCC2F12002BCF1004FB4
:1016C80020FA02F243EB020008BF20F00100704745
:1016D80002F1200201FA02FCC2F1200250EA4C0099
:1016E80021FA02F243EB020008BF20EADC707047DF
:1016F8004FF0FF0C1CEAD0521EBF1CEAD15392EAED
:101708000C0F93EA0C0F6FD01A4480EA010C4002C8
:1017180018BF5FEA41211ED04FF0006343EA501022
:1017280043EA5111A0FB01310CF00040B1F5000F64
:101738003EBF490041EAD3715B0040EA010062F113
:101748007F02FD2A1DD8B3F1004F40EBC25008BFFD
:1017580020F00100704790F0000F0CF0004C08BF1B
:1017680049024CEA502040EA51207F3AC2BFD2F1E8
:10177800FF0340EAC250704740F400004FF00003F6
:10178800013A5DDC12F1190FDCBF00F00040704730
:10179800C2F10002410021FA02F1C2F1200200FA6E
:1017A80002FC5FEA310040F1000053EA4C0308BF35
:1017B80020EADC70704792F0000F00F0004C02BF86
:1017C800400010F4000F013AF9D040EA0C0093F001
:1017D800000F01F0004C02BF490011F4000F013B5B
:1017E800F9D041EA0C018FE70CEAD15392EA0C0FC9
:1017F80018BF93EA0C0F0AD030F0004C18BF31F034
:10180800004CD8D180EA010000F00040704790F009
:10181800000F17BF90F0004F084691F0000F91F0AD
:10182800004F14D092EA0C0F01D142020FD193EA73
:101838000C0F03D14B0218BF084608D180EA0100FB
:1018480000F0004040F0FE4040F40000704740F0D7
:10185800FE4040F4400070474FF0FF0C1CEAD052A5
:101868001EBF1CEAD15392EA0C0F93EA0C0F69D001
:10187800A2EB030280EA010C49024FEA402037D06C
:101888004FF0805343EA111143EA10130CF0004063
:101898008B4238BF5B0042F17D024FF4000C8B4253
:1018A80024BF5B1A40EA0C00B3EB510F24BFA3EB33
:1018B800510340EA5C00B3EB910F24BFA3EB910303
:1018C80040EA9C00B3EBD10F24BFA3EBD10340EA5D
:1018D800DC001B0118BF5FEA1C1CE0D1FD2A3FF6A3
:1018E80050AF8B4240EBC25008BF20F00100704758
:1018F8000CF0004C4CEA50207F32C2BFD2F1FF03FB
:1019080040EAC250704740F400004FF00003013A2B
:1019180037E792F0000F00F0004C02BF400010F4CF
:10192800000F013AF9D040EA0C0093F0000F01F0E3
:10193800004C02BF490011F4000F013BF9D041EA05
:101948000C0195E70CEAD15392EA0C0F08D1420238
:101958007FF47DAF93EA0C0F7FF470AF084676E70B
:1019680093EA0C0F04D14B023FF44CAF08466EE7E4
:1019780030F0004C18BF31F0004CCAD130F00042B2
:101988007FF45CAF31F000437FF43CAF5FE700BF0A
:1019980042000ED2B2F1FE4F0BD34FF09E03B3EBD1
:1019A800126209D44FEA002343F0004323FA02F0FD
:1019B80070474FF00000704712F1610F01D14202E9
:1019C80002D14FF0FF3070474FF00000704700BF62
:1019D80003685A004CBF43F0004323F00043184407
:1019E800704700BF61B32DE9F84F01F1FF3A904607
:1019F8000646D146002707EB090404EBD4746410AB
:101A0800E50071190846FFF7E3FFA245834605F193
:101A18000800304409D0FFF7DBFFC34500F1FF3071
:101A280005D8404509D2671CE5E7C34505D9A74253
:101A380002D004F1FF39DEE700210846BDE8F88F3F
:101A480008467047012807D0022807D0044B002811
:101A58000CBF18460020704702487047024870477C
:101A6800492100084D2100085121000830B5264BB6
:101A780083B004468D1E4BB301A92846AFF30080FE
:101A8800F0B101992A46FFF7ADFF0146C0B1FFF753
:101A98009FFF4B68A064012B2FD0002B01F104009D
:101AA80027DBFFF795FF0023C4E913030368002B26
:101AB80013DBFFF78DFF00232061184603B030BD0C
:101AC800092300221846226103B030BD0F4B10498C
:101AD8001846C91AC9100191D4E7C3F30360FFF788
:101AE800B1FF002814BF002309232061184603B062
:101AF80030BD0123C4E91303D8E7052300221846A3
:101B0800226103B030BD00BF00000000EC8F000868
:101B180014920008036810B5DA07044606D49B0738
:101B280000F1480009D500F067FC2368590709D57A
:101B38001A070ED5DB0613D510BD00F055FC236837
:101B48005907F5D404F1D00000F05EFC23681A07A9
:101B5800F0D404F5A87000F05FFC2368DB06EBD432
:101B680004F5E870BDE8104000F09ABC036803B1C2
:101B780003441846704700BF09207047704700BFEC
:101B880070B504460D4608E02A6C23696261214657
:101B98002A4601209847082808D1296C2046FFF7D3
:101BA80065FF06460028EFD001F032FE0728FBD17A
:101BB8003046296CFFF7E2FF281D00F009FC00BF42
:101BC8002DE9F04705464FF0000CADF5727D03ACEA
:101BD8000E1D17460FCE0FC40FCE0FC40FCE0FC465
:101BE80096E80F00D5F80C80D5F8189084E80F0017
:101BF80002ACC4F800C021E0236C4FF4F0726B61B2
:101C080021467AA800F076FE2B697AAA2946304642
:101C18009847889BCDE900498246636431462B4644
:101C28002A460120C0470746F8B94FF4F0727AA94E
:101C3800204600F05FFEBAF1080F1CD1216C28463F
:101C4800FFF714FF002F08BF0926074618BF0A260A
:101C58000028D1D0A36B46F01001CDE900492A46EF
:101C6800636401202B46C04700B1092738460DF5AB
:101C7800727DBDE8F087BAF1070FF6D13846216CBE
:101C8800FFF77CFF03A800F0A3FB00BF406C704780
:101C98004FF0FF3CF0B5CB6BF9B00B640D1D01ACF8
:101CA8000F4606460FCD0FC40FCD0FC40FCD0FC47E
:101CB80095E80F0084E80F00CDF800C006E033690E
:101CC8006A46314698470828044608D11099304694
:101CD800FFF7CCFE0028F2D0092079B0F0BD6846A5
:101CE800FFF718FF062CF7D139463046FFF748FFB3
:101CF80030B4DD6BC160826119461D64002230BCBE
:101D08005EE700BF70B54369C6680B64BEB9036976
:101D18000A4604460D46014602209847072807D080
:101D2800082803D129462046FFF72AFF01F070FD55
:101D38003046296CFFF722FF281D00F049FB0122DD
:101D4800FFF73EFF01F064FDC2682AB110B4CC6B06
:101D580000220C6410BC33E79AE700BF704700BF4D
:101D6800836813B10146012018477047042907D832
:101D7800DFE801F00308060808000BB90F2A03D9A9
:101D8800022070470120704700EB82004268184625
:101D9800009B1A60704700BF002310B584B003ACE5
:101DA8000A4600941946FFF7E1FF039804B010BDF6
:101DB800042907D8DFE801F00308060808000BB972
:101DC8000F2A03D90220704701207047009900EBC1
:101DD8008202096818465160704700BF002310B599
:101DE80084B004AC44F8042D00940A461946FFF761
:101DF800DFFF04B010BD00BF4FF0FF3CF0B5D36B60
:101E0800ADF50F7D1364151D17AC07460E460FCDB3
:101E18000FC40FCD0FC40FCD0FC495E80F0084E891
:101E28000F00CDF858C012E00C2116A86A46FFF73B
:101E3800D5FF314616A8B84778B9049B16AA694653
:101E4800082098470528044608D0092805D026996F
:101E58006846FFF70BFE0028E6D0092416A8FFF70E
:101E680059FE20460DF50F7DF0BD00BF2DE9F04F5E
:101E78000D46C96C89B00C1D164600F0030B0A68A4
:101E88001F460694002B68D00221130C8DF81D30D4
:101E98001204DBB204EB830405928DF81C102B6D41
:101EA800BBF1020F08BFAC6B13F0010346D10193DD
:101EB80000F008030093D4F80090B9F1000F00F087
:101EC800F380022F45D0B4F80090B4F802800434AF
:101ED800AB6C28F0010A0F2130469A44FFF75CFFEB
:101EE800824534D829F001035344834294BF00202B
:101EF80001204FEA480808F0020809F0010948EAF9
:101F08000908B8F1010F3AD031D3B8F1020F1AD14C
:101F1800236823F0004ABBF1000F66D130B1009A64
:101F2800002A6CD0BAF1000F00F09080002B00DA84
:101F380004340AF1010304EB8304BCE7304605A925
:101F480000F048FB78B1092009B0BDE8F08F002007
:101F5800CFE7D4F804800834BAE7032312020592C5
:101F6800ADF81C309BE7082009B0BDE8F08FBBF145
:101F7800000F02D0002840F0B48004349BE7BBF186
:101F8800000F18D1A8B1D4E90023991C4FEAD272E6
:101F9800D9D005F158010133049100F0B580201D16
:101FA800FFF7E4FD04AB01462846AFF300800028A4
:101FB80067D108347FE70D213046D5F82080FFF738
:101FC800EBFE8045F5D1AB6A9C42F2D12046FFF783
:101FD800FFFC0F2102463046FFF700FF30462A4635
:101FE8000021FFF7FBFE0720AEE70D213046D5F8AC
:101FF8002080FFF7D1FE804532D0236896E7BAF1FA
:10200800000F23D005F1580304F10408CDF808B0F7
:10201800DDF80090A34603971C4602E05745B946F1
:1020280040D040460494FFF7A1FD04AB01460022CE
:102038002846AFF3008009F1010708F104080028D9
:10204800ECD0D1455C46DDE902B7D6D130460D214A
:10205800FFF7A2FE049B2862C5E90934062073E74E
:10206800AB6A9C42C9D104224FF00008A318C5E905
:102078000AA8C5E90C23236843454DDB01230193D6
:1020880057E780460D213046FFF786FEB8F1020F6C
:1020980028623ED12B46049A43F82C2F6B62AC621F
:1020A800062051E75C46D1E705A9304600F092FAD0
:1020B80000287FF448AF019B002B3FF454AF0F2159
:1020C8003046FFF769FE0E2102463046FFF786FECE
:1020D80030461A4A0F21FFF781FE072009B0BDE8F4
:1020E800F08F2046FFF774FC04340746AC6328469B
:1020F800AFF3008000283FF426AF30463A460F2160
:10210800FFF76CFE07201FE730460D21FFF744FE5E
:102118002862049B6B62C2E70AF1010004EB8000AD
:10212800FFF756FC0F2102463046FFF757FE3046B0
:102138002A464146FFF752FE072005E70000000047
:10214800002393E6012391E602238FE62DE9F0416F
:102158000546C4B0042906D8DFE801F04D2B050375
:102168000900032B5FD0022044B0BDE8F081002BAA
:10217800F9D1102AF7D82B68DC0600F1F68022ACDA
:1021880020460192012600F095F90023A86B019AD8
:1021980006FA03F1114203D00168043044F8231011
:1021A8000133042BF4D1A863204600F079F900200C
:1021B800DAE7012B4FEA124697B254D0052BD2D159
:1021C80006EB0708B8F1200FCDD80F2E40F29B8000
:1021D800B846002F40F0DD80AA6B0F2EAA6340F2AC
:1021E800C080B8F1000F02D002A800F00DF900205D
:1021F80044B0BDE8F081002BB5D10127AC6B96B295
:10220800281D07FA03F1314203F1010302D02168C6
:1022180004340160102B00F10400F2D112F40050D4
:10222800E5D1AC63A0E7160C97B2F319102B9AD836
:102238002B681A075FD422AC204600F00FF904EB94
:10224800C601A86B4FB1034600EBC7001A680433F8
:10225800834241F8042BF9D11846A863204600F0C0
:10226800DBF8002080E7F219102A3FF67CAF0F2E2A
:102278003FF679AF2A68D10708D5284622F003022D
:1022880040F8482B019300F0B3F8019B22AC20469C
:10229800019300F0ADF8A96B019B002F00F0958029
:1022A8004FF000087A0004EBC604043C01EB8202FC
:1022B80051F8040B914244F8040FF9D1B8F1000F1A
:1022C8000FD002AC102E314638BF102104EBC101EB
:1022D800843902EBC80452F8040B944241F8040F05
:1022E800F9D1012B7FF479AF22AC0432AA632046DE
:1022F80000F07AF87BE723F008032B6005F5A87057
:1023080000F0ACF897E7B8F1100F2A6843D9D00766
:10231800A8F110080BD5284622F0010242F002026B
:1023280040F8482B019300F06BF82A68019B51078D
:1023380025D40F2E04D822A8019300F061F8019B40
:1023480002AC2046019300F063F8C6F110000028A3
:10235800AA6B019BB6DD22AC114604EBC604420011
:10236800A3E722A800F048F83BE723F010032B600E
:1023780005F5E870019200F09DF8019AFFE62846FD
:1023880022F0040240F8D02B019300F041F8019BA1
:10239800CFE72A68CBE7D0070AD5284622F0010202
:1023A80042F0020240F8482B019300F029F8019B03
:1023B80022AC20460193B84600F022F8A96B019B95
:1023C800002F7FF46DAF0A4607E70A468DE700BF86
:1023D80000F1340191E838009C46A6464CF8045DAB
:1023E80090E8FF0FE54600BD90EC210B704700BF59
:1023F80080EC210B704700BF90EC200B704700BFAA
:1024080080EC200B704700BFD0EC200B704700BF5A
:10241800C0EC200B704700BFF0EC0201F0EC021199
:10242800F0EC0221F0EC0231F0EC0241F0EC025148
:10243800F0EC0261F0EC0271F0EC0281F0EC029138
:10244800F0EC02A1F0EC02B1F0EC02C1F0EC02D128
:10245800F0EC02E1F0EC02F1704700BFE0EC0201A1
:10246800E0EC0211E0EC0221E0EC0231E0EC024188
:10247800E0EC0251E0EC0261E0EC0271E0EC028178
:10248800E0EC0291E0EC02A1E0EC02B1E0EC02C168
:10249800E0EC02D1E0EC02E1E0EC02F1704700BFB1
:1024A800B0FC0181B0FC0191B0FC01A1B0FC01B10C
:1024B800704700BFA0FC0181A0FC0191A0FC01A114
:1024C800A0FC01B1704700BFEC4600B52DE90050F3
:1024D8002DE9FF1F4FF000032DE90C0001A9FFF7BC
:1024E800D7FBDDF840E012B0704700BFEC4600B5FE
:1024F8002DE900502DE9FF1F4FF000032DE90C00D6
:1025080001A9FFF7FFFBDDF840E012B0704700BFFC
:10251800EC4600B52DE900502DE9FF1F4FF00003F0
:102528002DE90C0001A9FFF70FFCDDF840E012B01F
:10253800704700BFEC4600B52DE900502DE9FF1F9C
:102548004FF000032DE90C0001ABFFF7D1FBDDF8DC
:1025580040E012B0704700BFEC4600B52DE90050CE
:102568002DE9FF1F4FF000032DE90C0001AAFFF72A
:1025780043FCDDF840E012B0704700BF027A7AB938
:10258800437AA3B103214268013B10B44372136834
:10259800141D01721A024460026010BC180E7047C4
:1025A8000368013A02721A020260180E7047B020DE
:1025B800704700BF002300B585B003AA00921946F2
:1025C8000C22FFF7D3FB039805B05DF804FB00BFAE
:1025D800F0E700BF2DE9F04305460E464FF000082E
:1025E80085B03046FFF7CAFFB028044600F0B08037
:1025F800070620D500F0F003802B65D0902B36D04D
:10260800A02B78D0B02B47D0C02B00F0898000F0E9
:10261800F803D02B0BD100F00702013242F400225C
:10262800052301212846FFF791FD0028D9D009206C
:1026380005B0BDE8F08300230DF10C0919468700A9
:10264800CDF800900D222846FFF790FBFFB2039BC0
:10265800043760064CBFDF1BFF180023CDF800903D
:1026680019460D2228460397FFF7A2FBB9E700F0A9
:102678000D030D2BDBD0002303AF00F00F0219462A
:1026880000972846FFF772FB0023009719460D2292
:102698002846FFF78DFBA4E7B1285ED0B22800F0EA
:1026A800CB80B3287DD000F0FC03B42BBFD001232E
:1026B80000F007021A4442F4002219462846FFF7A0
:1026C80045FD00288DD0B2E73046FFF757FF2402BA
:1026D8000443B4F5004FAAD000232401A2B219463E
:1026E8002846FFF733FD0028A1D114F4004F18BF86
:1026F8004FF0010875E7C3434FF47F6203F0070307
:102708001A410023010702F47F6248BF42F4804265
:1027180019462846FFF71AFD00283FF462AF86E7FE
:10272800C62851D0C7285AD000F0F803C02B69D06A
:10273800C82875D0C9287FF47AAF3046FFF71EFF46
:10274800020300F00F0002F470220130024367E731
:10275800B8F1000F14D000206AE73046FFF70EFFEB
:1027680000283FF464AF10F0F0037FF460AF024636
:1027780019462846FFF7EAFC00283FF432AF56E72F
:1027880003AC43460E22414600942846FFF7EEFA72
:102798000094284643460F224146FFF709FB40466E
:1027A80046E73046FFF7EAFE0123010300F00F0079
:1027B80001F47021C2180A4328461946FFF7C6FCDF
:1027C80000283FF40EAF32E73046FFF7D7FE01038B
:1027D80000F00F00032301F47021421CEBE73046A0
:1027E800FFF7CCFE024600283FF421AF10F0F003BB
:1027F8007FF41DAF04212846FFF7A8FC00283FF40A
:10280800F0AE14E7032300F00F02013242F4202255
:1028180019462846FFF79AFC00283FF4E2AE06E77F
:102828003046FFF7ABFE00F0F00200F00F03103265
:10283800013343EA0232F3E600230DF10C090D22BD
:102848001946CDF800902846FFF790FA3046FFF772
:1028580095FE02064FF002070CD5039B00F07F009F
:10286800B840034430460393FFF788FE030607F198
:102878000707F2D40023039A00F07F04BC4002F556
:1028880001721444CDF8009019460D22284603948D
:10289800FFF78EFAA5E600BF30B503240D46C36CDA
:1028A80085B05A688DF80C40DC791202083301A90A
:1028B800284601928DF80D400293FFF78BFE05B074
:1028C80030BD00BF08B5FFF783FE806C08BD00BFB0
:1028D80008B5FFF77DFEC06CC37900EB83000830B4
:1028E80008BD00BF08B500F093FF00BF08B5FFF7AB
:1028F800F9FF00BF844641EA000313F0030349D1FE
:10290800403A23D30B6803604B6843608B6883604D
:10291800CB68C3600B6903614B6943618B69836151
:10292800CB69C3610B6A03624B6A43628B6A836239
:10293800CB6AC3620B6B03634B6B43638B6B836321
:10294800CB6BC36340304031403ADBD230320BD3DB
:102958000B6803604B6843608B688360CB68C36017
:1029680010301031103AF3D20C3205D351F8043B31
:1029780040F8043B043AF9D2043208D0D2071CBF0D
:1029880011F8013B00F8013B01D30B880380604636
:10299800704700BF082A13D38B07B1D010F0030388
:1029A800AED0C3F10403D21ADB071CBF11F8013BF8
:1029B80000F8013BA4D331F8023B20F8023B9FE723
:1029C800043AD9D3013A11F8013B00F8013BF9D296
:1029D8000B7803704B7843708B7883706046704730
:1029E80080EA010C1CF0030F37D110F0030C20F023
:1029F800030021F0030150F8042B08BF51F8043BF1
:102A08000ED08CF0030C6FF07F434FEACC0C23FA06
:102A18000CFC51F8043B42EA0C0243EA0C0300BFE9
:102A2800A2F1013C9A4201BF2CEA020C1CF0803F43
:102A380050F8042B51F8043BF2D04FEA02604FEAF9
:102A48001222012828BFB0EB036F08BF1B0AF4D07D
:102A580003F0FF03000EC01A704710F0030F0AD0EE
:102A680010F8012B11F8013B012A28BF9A42F4D033
:102A7800A2EB030070474DF8045D50F8042B01F0F9
:102A8800030521F0030151F8043B022D26D04DD84F
:102A980022F07F45B5EB132FA2F1013C2CEA020C82
:102AA8000DD11CF0803C08BF51F8043B0AD185EADF
:102AB8000205B5EB036F0CD150F8042BE8E74FEA99
:102AC80013235BE03CF07F4C54D10B784FEA12653E
:102AD80054E04FEA126503F0FF034FE04FEA024566
:102AE800A2F1013C4FEA15452CEA020CB5EB134F55
:102AF80018D11CF0803C08BF51F8043B07D185EA87
:102B08000205B5EB034F09D150F8042BE6E75FEA5D
:102B18000C4C2FD10B884FEA12452FE04FEA0343A4
:102B28004FEA12454FEA134328E000BF02F0FF05C1
:102B3800B5EB136FA2F1013C2CEA020C0DD11CF08D
:102B4800803C08BF51F8043B0AD185EA0205B5EB81
:102B5800032F0AD150F8042BE8E74FEA13630DE07E
:102B680012F0FF0F06D051F8043B4FEA122523F06C
:102B78007F4303E04FF0000020BC704705F0FF02E0
:102B880003F0FF00012828BF904204BF2D0A1B0A4A
:102B9800F4D0A2EB000020BC704700BF81F00041D8
:102BA80002E000BF83F0004330B54FEA41044FEA2A
:102BB800430594EA050F08BF90EA020F1FBF54EAC5
:102BC800000C55EA020C7FEA645C7FEA655C00F061
:102BD800E2804FEA5454D4EB5555B8BF6D420CDD32
:102BE8002C4480EA020281EA030382EA000083EAB5
:102BF800010180EA020281EA0303362D88BF30BD55
:102C080011F0004F4FEA01314FF4801C4CEA1131AA
:102C180002D0404261EB410113F0004F4FEA033309
:102C28004CEA133302D0524263EB430394EA050F94
:102C380000F0A780A4F10104D5F1200E0DDB02FA03
:102C48000EFC22FA05F2801841F1000103FA0EF297
:102C5800801843FA05F359410EE0A5F120050EF15D
:102C6800200E012A03FA0EFC28BF4CF0020C43FA8E
:102C780005F3C01851EBE37101F0004507D54FF09B
:102C8800000EDCF1000C7EEB00006EEB0101B1F5EB
:102C9800801F1BD3B1F5001F0CD349085FEA300031
:102CA8004FEA3C0C04F101044FEA445212F5800F3C
:102CB80080F09A80BCF1004F08BF5FEA500C50F1D9
:102CC800000041EB045141EA050130BD5FEA4C0CBC
:102CD800404141EB010111F4801FA4F10104E9D145
:102CE80091F0000F04BF01460020B1FA81F308BF3C
:102CF8002033A3F10B03B3F120020CDA0C3208DD08
:102D080002F1140CC2F10C0201FA0CF021FA02F1E2
:102D18000CE002F11402D8BFC2F1200C01FA02F152
:102D280020FA0CFCDCBF41EA0C019040E41AA2BF77
:102D380001EB0451294330BD6FEA04041F3C1CDA3F
:102D48000C340EDC04F11404C4F1200220FA04F05F
:102D580001FA02F340EA030021FA04F345EA030109
:102D680030BDC4F10C04C4F1200220FA02F001FACB
:102D780004F340EA0300294630BD21FA04F029464D
:102D880030BD94F0000F83F4801306BF81F48011E6
:102D98000134013D4EE77FEA645C18BF7FEA655C59
:102DA80029D094EA050F08BF90EA020F05D054EA2B
:102DB800000C04BF1946104630BD91EA030F1EBF30
:102DC8000021002030BD5FEA545C05D14000494134
:102DD80028BF41F0004130BD14F580043CBF01F527
:102DE800801130BD01F0004545F0FE4141F470010D
:102DF8004FF0000030BD7FEA645C1ABF19461046E8
:102E08007FEA655C1CBF0B46024650EA013406BFE8
:102E180052EA033591EA030F41F4002130BD00BFA7
:102E280090F0000F04BF0021704730B54FF4806464
:102E380004F132044FF000054FF0000150E700BFE5
:102E480090F0000F04BF0021704730B54FF4806444
:102E580004F1320410F0004548BF40424FF0000131
:102E68003EE700BF42004FEAE2014FEA31014FEA74
:102E780002701FBF12F07F4393F07F4F81F06051C3
:102E8800704732F07F4208BF704793F07F4F04BF0E
:102E980041F40021704730B54FF4607401F00045EB
:102EA80021F000411CE700BF50EA010208BF70474B
:102EB80030B54FF000050AE050EA010208BF70473C
:102EC80030B511F0004502D5404261EB41014FF4A5
:102ED800806404F132045FEA915C3FF4D8AE4FF0AD
:102EE80003025FEADC0C18BF03325FEADC0C18BF90
:102EF800033202EBDC02C2F1200300FA03FC20FAE1
:102F080002F001FA03FE40EA0E0021FA02F114442D
:102F1800BDE600BF70B54FF0FF0C4CF4E06C1CEA46
:102F280011541DBF1CEA135594EA0C0F95EA0C0FB7
:102F380000F0DEF82C4481EA030621EA4C5123EA2A
:102F48004C5350EA013518BF52EA033541F4801159
:102F580043F4801338D0A0FB02CE4FF00005E1FB0C
:102F680002E506F00042E0FB03E54FF00006E1FB56
:102F780003569CF0000F18BF4EF0010EA4F1FF0499
:102F8800B6F5007F64F5407404D25FEA4E0E6D41D9
:102F980046EB060642EAC62141EA55514FEAC520EA
:102FA80040EA5E504FEACE2EB4F1FD0C88BFBCF566
:102FB800E06F1ED8BEF1004F08BF5FEA500E50F117
:102FC800000041EB045170BD06F0004646EA0101DD
:102FD80040EA020081EA0301B4EB5C04C2BFD4EB0F
:102FE8000C0541EA045170BD41F480114FF0000E08
:102FF800013C00F3AB8014F1360FDEBF002001F076
:10300800004170BDC4F10004203C35DA0C341BDCEF
:1030180004F11404C4F1200500FA05F320FA04F0C1
:1030280001FA05F240EA020001F0004221F00041F5
:1030380010EBD37021FA04F642EB06015EEA430E68
:1030480008BF20EAD37070BDC4F10C04C4F1200598
:1030580000FA04F320FA05F001FA04F240EA02004B
:1030680001F0004110EBD37041F100015EEA430E1C
:1030780008BF20EAD37070BDC4F1200500FA05F23C
:103088004EEA020E20FA04F301FA05F243EA0203BB
:1030980021FA04F001F0004121FA04F220EA0200CA
:1030A80000EBD3705EEA430E08BF20EAD37070BD10
:1030B80094F0000F0FD101F00046400041EB0101F0
:1030C80011F4801F08BF013CF7D041EA060195F0D2
:1030D800000F18BF704703F00046520043EB03038C
:1030E80013F4801F08BF013DF7D043EA0603704779
:1030F80094EA0C0F0CEA135518BF95EA0C0F0CD084
:1031080050EA410618BF52EA4306D1D181EA0301C9
:1031180001F000414FF0000070BD50EA410606BFC3
:103128001046194652EA430619D094EA0C0F02D108
:1031380050EA013613D195EA0C0F05D152EA03364D
:103148001CBF104619460AD181EA030101F000416B
:1031580041F0FE4141F470014FF0000070BD41F0B4
:10316800FE4141F4780170BD70B54FF0FF0C4CF48E
:10317800E06C1CEA11541DBF1CEA135594EA0C0FAD
:1031880095EA0C0F00F0A7F8A4EB050481EA030EFA
:1031980052EA03354FEA013100F088804FEA0333E1
:1031A8004FF0805545EA131343EA12634FEA0222AF
:1031B80045EA111545EA10654FEA00260EF0004170
:1031C8009D4208BF964244F1FD0404F5407402D2C2
:1031D8005B084FEA3202B61A65EB03055B084FEA53
:1031E80032024FF480104FF4002CB6EB020E75EB50
:1031F800030E22BFB61A754640EA0C005B084FEA78
:103208003202B6EB020E75EB030E22BFB61A7546F4
:1032180040EA5C005B084FEA3202B6EB020E75EB3F
:10322800030E22BFB61A754640EA9C005B084FEAB7
:103238003202B6EB020E75EB030E22BFB61A7546C4
:1032480040EADC0055EA060E18D04FEA051545EAB3
:1032580016754FEA06164FEAC30343EA52734FEA5C
:10326800C2025FEA1C1CC0D111F4801F0BD141EAD5
:1032780000014FF000004FF0004CB6E711F4801F3A
:1032880004BF01430020B4F1FD0C88BFBCF5E06F1A
:103298003FF6AFAEB5EB030C04BFB6EB020C5FEA2A
:1032A800500C50F1000041EB045170BD0EF0004E7F
:1032B8004EEA113114EB5C04C2BFD4EB0C0541EAB1
:1032C800045170BD41F480114FF0000E013C90E6AE
:1032D80045EA060E8DE60CEA135594EA0C0F08BF72
:1032E80095EA0C0F3FF43BAF94EA0C0F0AD150EA71
:1032F80001347FF434AF95EA0C0F7FF425AF104604
:1033080019462CE795EA0C0F06D152EA03353FF42B
:10331800FDAE1046194622E750EA410618BF52EAA8
:1033280043067FF4C5AE50EA41047FF40DAF52EA7C
:1033380043057FF4EBAE12E74FF0FF3C06E000BF19
:103348004FF0010C02E000BF4FF0010C4DF804CD26
:103358004FEA410C7FEA6C5C4FEA430C18BF7FEAE6
:103368006C5C1BD001B050EA410C0CBF52EA430C14
:1033780091EA030F02BF90EA020F0020704710F194
:10338800000F91EA030F58BF994208BF90422CBF23
:10339800D8176FEAE37040F0010070474FEA410C1C
:1033A8007FEA6C5C02D150EA013C07D14FEA430C3A
:1033B8007FEA6C5CD6D152EA033CD3D05DF8040BAB
:1033C800704700BF8446104662468C4619466346DD
:1033D80000E000BF01B5FFF7B7FF002848BF10F1B4
:1033E800000F01BD4DF808EDFFF7F4FF0CBF0120F9
:1033F80000205DF808FB00BF4DF808EDFFF7EAFF75
:1034080034BF012000205DF808FB00BF4DF808ED2F
:10341800FFF7E0FF94BF012000205DF808FB00BF24
:103428004DF808EDFFF7CEFF94BF012000205DF8AE
:1034380008FB00BF4DF808EDFFF7C4FF34BF0120BB
:1034480000205DF808FB00BF4FEA410C7FEA6C5C86
:1034580002D150EA013C0AD14FEA430C7FEA6C5C86
:1034680002D152EA033C02D14FF0000070474FF0FE
:10347800010070474FEA410212F5001215D211D52A
:103488006FF47873B3EB625212D94FEAC12343F059
:10349800004343EA505311F0004F23FA02F018BFDB
:1034A800404270474FF00000704750EA013005D1A4
:1034B80011F0004008BF6FF0004070474FF0000067
:1034C800704700BF53B94AB9002908BF00281CBF7C
:1034D8004FF0FF314FF0FF3000F074B9ADF1080C38
:1034E8006DE904CE00F006F8DDF804E0DDE902231A
:1034F80004B070472DE9F0478C460446089E002B1F
:103508004BD18A42154667D9B2FA82F24AB1C2F162
:10351800200701FA02F320FA07F7954047EA030C5F
:1035280094404FEA154EBCFBFEF71FFA85F80EFBD8
:1035380017C307FB08F9210C41EA0343994509D948
:10354800EB1807F1FF3180F01C81994540F2198191
:10355800023F2B44A3EB0903B3FBFEF00EFB103331
:1035680000FB08F1A4B244EA0344A14209D92C198A
:1035780000F1FF3380F00781A14240F20481023854
:103588002C4440EA07400027641A1EB10023D440A7
:10359800C6E900433946BDE8F0878B4209D9002EB9
:1035A80000F0EC800027C6E9000138463946BDE83E
:1035B800F087B3FA83F7002F48D18B4202D38242B7
:1035C80000F2FB80841A61EB030301209C46002E65
:1035D800E0D0C6E9004CDDE702B9FFDEB2FA82F2BC
:1035E800002A40F08F800127491B4FEA15481FFA2F
:1035F80085F9B1FBF8FE08FB1E1109FB0EF04FEA36
:10360800144C4CEA0143984207D9EB180EF1FF31EC
:1036180002D2984200F2CD808E461B1AB3FBF8F016
:1036280008FB103309FB00F9A4B244EA0344A1459E
:1036380007D92C1900F1FF3302D2A14500F2B68058
:103648001846A4EB090440EA0E409EE7C7F120059E
:10365800BB4022FA05FC4CEA030C21FA05F44FEAB8
:103668001C4EB4FBFEF91FFA8CF80EFB194420FA25
:1036780005F3B94009FB08FA19430B0C43EA044463
:10368800A24502FA07F200FA07F30BD91CEB04046F
:1036980009F1FF3080F08880A24540F28580A9F1C9
:1036A80002096444A4EB0A04B4FBFEF00EFB1044C8
:1036B80000FB08FA89B241EA0444A24508D91CEB88
:1036C800040400F1FF316BD2A24569D90238644481
:1036D80040EA0940A0FB0289A4EB0A044C45414694
:1036E800CE4654D351D0002E69D05A1A64EB0E043A
:1036F80004FA05F522FA07F3FC401D43C6E9005415
:10370800002747E79540C2F1200321FA03F04FEA6A
:103718001548B0FBF8F71FFA85F908FB170024FADB
:1037280003F3914007FB09FC0B43190C41EA0041E4
:103738008C4504FA02F407D9691807F1FF3031D231
:103748008C452FD9023F2944A1EB0C01B1FBF8F0BD
:1037580008FB101C00FB09FE99B241EA0C418E459A
:1037680007D9691800F1FF3318D28E4516D90238E7
:103778002944A1EB0E0140EA07473AE737463046AD
:1037880008E70F46E6E61846FBE64345ABD2B8EB3A
:10379800020169EB0C0201389646A4E71846E8E7EF
:1037A800084695E70746CFE781467BE702382C4471
:1037B80047E7AEF1020E2B442FE7384607E73746B6
:1037C800E8E600BF704700BF002103E00A4B5B58E2
:1037D8004350043109480A4B42189A42F6D3094A21
:1037E80002E0002342F8043B074B9A42F9D3FDF765
:1037F8005DFCFCF77FFE7047209200080000002067
:10380800581100205811002084160020FEE70000FF
:1038180008B5062000F02AFC012004F00BFF00BFC9
:1038280008B50021044600F0E3FC044B1868C36B9C
:1038380003B19847204604F0FDFE00BF4C8B0008FA
:1038480070B50D4E0D4D761BB61006D00024013410
:1038580055F8043B9847A642F9D1094E094D05F0A1
:10386800DBFA761BB61006D00024013455F8043B69
:103878009847A642F9D170BD149200081492000826
:103888001C92000814920008024B0146186800F0C8
:103898000BB800BFAC070020024B0146186800F0C7
:1038A8008BBD00BFAC0700202DE9F04F01F10B05DF
:1038B800162D83B0064623D8102900F2B68000F0F2
:1038C800CFFA102518230220CC4F3B445C68A3F1A3
:1038D8000802944200F056816368E16823F003030C
:1038E80023445A68A56842F00102E96030468D60B9
:1038F8005A6000F0BBFA0834204603B0BDE8F08FE8
:1039080035F0070500F19180A94200F28E8000F0A1
:10391800A7FAB5F5FC7FC0F064816B0A00F08C80D3
:10392800042B00F23681AB0903F1390003F1380C9E
:10393800C100B24F39444C680839A14206D10CE0A5
:10394800002A80F21B81E468A14206D0636823F054
:1039580003035A1B0F2AF3DD60463C69DFF8B0C247
:1039680064456FD0636823F003035A1B0F2A00F3E2
:103978002681002AC7E904CC80F21781B3F5007FBD
:1039880080F059810122DB08991013448A40796834
:1039980057F833E007EBC3080A43A8F10801C4E964
:1039A80002E17A6047F83340CEF80C4001248310D6
:1039B8009C4094424CD8144206D120F00300640085
:1039C800144200F10400FAD007EBC009CE46804645
:1039D800DEF80C309E4507D107E1002A80F21C81F1
:1039E800DB689E4500F00181596821F003014A1BFC
:1039F8000F2AF2DD45F001083046D3E902E41D4400
:103A080042F00106C3F80480CEF80C40C4F808E080
:103A1800C7E90455C5E902CC6E605A50019300F01D
:103A280025FA019B03F1080466E700240C232046CD
:103A3800336003B0BDE8F08F4FF4007140204FF0C1
:103A48003F0C76E701247A6883109C409442B2D9EF
:103A5800BC68636823F00309A94503D3A9EB0503F0
:103A68000F2B7BDC664BDFF8ACA11A68DAF8003064
:103A780005EB0208013300F03A8108F5805808F197
:103A88000F0828F47F6828F00F084146304600F0F8
:103A98004BFAB0F1FF3F834600F0F68004EB0900D3
:103AA800584500F2EF80574A13684344136000F00A
:103AB8003F81DAF8001001311BBFABEB00001B1887
:103AC800CAF800B013601BF0070300F02681C3F1A9
:103AD8000801C3F580538B440833D844C8F30B0856
:103AE800A3EB080841463046019200F01DFA431C3A
:103AF800019A00F03881A0EB0B01414441F001012B
:103B08001368BC424344C7F808B01360CBF80410EC
:103B180015D0B9F10F0F40F222814FF0050E616800
:103B2800A9F10C0020F0070001F00101014304EBAA
:103B3800000C0F286160CCE901EE00F22C81324ABA
:103B480032481168BC688B42016888BF136062689C
:103B58008B4222F0030288BF036099E045F001021E
:103B680043F00103254462603046BD6008346B6051
:103B780000F07CF9204603B0BDE8F08F23445A6872
:103B8800E168AFE6DC68A34208BF02303FF4E5AE67
:103B9800A2E6142B70D9542B00F2AC802B0B03F146
:103BA8006F0003F16E0CC100C3E623445A68304627
:103BB80042F001025A60083400F058F99CE645F0DA
:103BC800010E42F001012544C4F804E03046C7E97B
:103BD8000455C5E902CC6960E25000F047F90834A1
:103BE8008AE6E80805F108036EE608F1010818F00E
:103BF800030F0EF1080E7FF4EBAE60E0D80B002047
:103C080084120020541200207C1200208012002010
:103C1800E00B0020E00F00201C4619444A68DB68CE
:103C280054F8085F42F001024A603046EB609D603C
:103C380000F01CF960E65A0A042A35D9142A6FD80C
:103C480002F15C01C9005B3207EB010E7958AEF155
:103C5800080E8E4558D04A6822F003029A4202D9CB
:103C680089688E45F7D1D1F80CE07A68C4E9021E5C
:103C7800CEF80840CC6099E603F15C0003F15B0CD8
:103C8800C10056E6BC4272D0BC68626822F00302EA
:103C98009542A2EB050302D80F2B3FF75FAF3046E2
:103CA80000F0E4F8002427E69A0902F13901C90076
:103CB8003832C9E7D9F80090994540F0838010F070
:103CC800030FA9F1080300F1FF30F3D17B6823EA61
:103CD80004037B6064009C423FF6BAAE1CB9B7E6A9
:103CE800640008F104081C42FAD040466CE608F16A
:103CF8001008CAE6B3F5AA7F26D8EB0B03F17800C3
:103D080003F1770CC10014E64FF001087B689210AC
:103D180008FA02F21A437A60A8E74FF48053DCE607
:103D2800542A29D81A0B02F16F01C9006E328BE7A9
:103D3800C0F30B0100297FF4BCAE09EB0802B96897
:103D480042F001024A60FAE640F2545293421CD80B
:103D5800AB0C03F17D0003F17C0CC100E9E5012304
:103D6800CBF804309BE701214FF00008C8E6164A5B
:103D78001368434413609CE6B2F5AA7F14D8DA0BA3
:103D880002F17801C90077325EE74FF47E717F2037
:103D98004FF07E0CCDE504F108013046019200F0A9
:103DA8000BFB019A1368CAE640F254518A4205D8BF
:103DB8009A0C02F17D01C9007C3245E74FF47E710F
:103DC8007E2241E77B6885E754120020F0B486071D
:103DD80043D0541E002A3ED0CAB2034602E014F172
:103DE800FF3438D303F8012B9D07F8D1032C2BD9C6
:103DF800CDB245EA05250F2C45EA054516D9A4F1AB
:103E080010073F0903F1200606EB071603F110021D
:103E180042E9045542E902551032B242F8D104F0A1
:103E28000F040137032C03EB07130DD91E46224656
:103E3800043A032A46F8045BFAD8221F22F0030248
:103E48000432134404F003042CB1C9B21C4403F82F
:103E5800011B9C42FBD1F0BC704714460346C5E7E2
:103E6800014800F0A7BB00BF70160020014800F011
:103E7800A9BB00BF7016002038B50C460968054676
:103E880029B921462846BDE8384000F095BAFFF721
:103E9800F3FF21462846BDE8384000F08DBA00BF40
:103EA800204B1B6883423BD0C36C70B505468BB171
:103EB8000026995939B10C68284600F07DFA214648
:103EC800002CF8D1EB6C0436802EF2D11946284626
:103ED80000F072FA296C11B1284600F06DFAD5F895
:103EE800481151B105F5A676B14206D00C682846AE
:103EF80000F062FAA6422146F8D1696D11B1284650
:103F080000F05AFAAB6B53B1EB6B28469847D5F8DB
:103F1800E01221B12846BDE87040FFF7ADBF70BD83
:103F2800704700BFAC07002038B50023064C054693
:103F38000846236004F070FB431C00D038BD23689A
:103F4800002BFBD02B6038BD5C16002010B58021FB
:103F58000446FFF7A9FCC4F8DC0240B10022031FA5
:103F68007C3043F8042F8342FBD1002010BD4FF072
:103F7800FF3010BDD0F8DC320BB100207047FFF7DE
:103F8800E5BF00BF1F2970B5054609D8D0F8DC3257
:103F980016460C464BB153F8240043F8246070BD14
:103FA80016224FF0FF302A6070BDFFF7CFFF10B91F
:103FB800D5F8DC32EFE74FF0FF3070BD1F2938B578
:103FC80024D8D0F8DC3205460C4673B153F82120CA
:103FD8005AB1012A13D0511C14D00025204643F8A9
:103FE800245090472B46184638BD284600F076F8EE
:103FF800224601462846BDE8384000F05BB8002359
:10400800184638BD162201230260ECE716224FF04D
:10401800FF330260E7E700BF1F2923D838B5D0F87F
:10402800DC3205460C4683B153F8242003EB8403A5
:104038004AB1511C0FD0012A12D0002520461D601C
:104048009047284638BD012038BDFFF77FFF20B9CB
:10405800D5F8DC32E8E7022038BD4FF0FF3038BD34
:10406800032038BD4FF0FF30704700BF024B0146B8
:104078001868FFF7A3BF00BFAC070020024B0A4631
:1040880001461868FFF77EBFAC070020044B18688C
:10409800D0F8DC320BB100207047FFF757BF00BFE4
:1040A800AC070020024B01461868FFF7B5BF00BFF8
:1040B800AC07002070B50D460023074C0646114694
:1040C8002846236004F0A0FA431C00D070BD236882
:1040D800002BFBD0336070BD5C16002004F08CBA56
:1040E80080EA0102844612F0030F4FD111F0030F4A
:1040F80032D14DF8044D11F0040F51F8043B0BD0A8
:10410800A3F101329A4312F0803F04BF4CF8043BFC
:1041180051F8043B16D100BF51F8044BA3F101320A
:104128009A4312F0803FA4F101320BD14CF8043BC2
:10413800A24312F0803F04BF51F8043B4CF8044BF3
:10414800EAD023460CF8013B13F0FF0F4FEA332364
:10415800F8D15DF8044B704711F0010F06D011F843
:10416800012B0CF8012B002A08BF704711F0020F31
:10417800BFD031F8022B12F0FF0F16BF2CF8022B1C
:104188008CF8002012F47F4FB3D1704711F8012B3F
:104198000CF8012B002AF9D1704700BF30B56FF039
:1041A80000449BB0064D0091049169460594CDE901
:1041B800024500F009FA0022009B1A701BB030BDBE
:1041C8000802FFFF10B4044C13460A460146206853
:1041D80010BCFFF7E3BF00BFAC070020024B13B1D0
:1041E800024800F079B8704700000000ED4200086E
:1041F8002DE9F04F0F46B946344B85B00390186847
:1042080000F0D8F9324B1B68019303F5A4730293AD
:10421800019BD3F848613EB34FF00108DDF808A0D0
:104228007468651E0FD40027013406EB8404B9F1C5
:10423800000F20D0D4F800314B451CD0013D6B1C39
:10424800A4F10404F3D1234B73B1D6E90032002A58
:1042580034D1002B32D03046CAF80030FFF71CFBAF
:10426800DAF80060002EDBD1184B186805B0BDE8FD
:10427800F04F00F0A7B973682268013BAB420CBF4E
:1042880075602760002AD9D0D6F8881108FA05F396
:104298000B42D6F804B008D1904773685B45B7D194
:1042A800DAF80030B342C9D0B2E7D6F88C01D4F8B6
:1042B8008010034207D103989047EEE7B2461E46A6
:1042C800002EADD1D0E708469047E6E7E80F00207A
:1042D8004C8B0008A1380008002301461A461846EE
:1042E80001F0E8BB38B50A4C0A4D641BA4100AD08B
:1042F80004F18043013B05EB8305013C55F8043983
:104308009847002CF9D1BDE8384004F08BBD00BFB8
:10431800209200081C920008F8B50C46234F064668
:10432800FFF79EFDBB68C4F57E615D680F3125F01F
:104338000305294421F47F6121F00F01A1F5805480
:10434800B4F5805F07DB00213046FFF7EDFDBB6861
:104358002B44984204D03046FFF788FD0020F8BD72
:1043680061423046FFF7E0FD01300DD0104BBA68CE
:1043780019682D1B45F001053046091B5560196069
:10438800FFF774FD0120F8BD00213046FFF7CCFD92
:10439800BA68831A0F2BDEDD064943F001030C6867
:1043A8000349001B53600860D5E700BFD80B002005
:1043B80054120020E00F0020002953D0F8B50D4614
:1043C8000646FFF74DFD55F804CC714FA5F10801DD
:1043D8002CF00103CA18B8685468904224F003040A
:1043E80053D01CF0010F546002EB04003BD155F888
:1043F80008CC4068A1EB0C018D6807F1080E7545E3
:10440800634400F0010075D0D1F80CC0C5F80CC0A9
:10441800CCF8085060B343F001024A60CB50B3F5C2
:10442800007F50D35A0A042A70D89A0902F1390534
:10443800ED0002F138007C197A59083C944278D092
:10444800506820F00300984271D992689442F7D1DD
:10445800E368C1E9024330469960E160BDE8F8408D
:10446800FFF704BD7047406800F001000028D2D172
:104478009068484D2344A84243F0010462D0D268B2
:10448800C26090604C60CB50C9E71CF0010F234418
:1044980007D155F8084C091BD1E902022344C26030
:1044A80090603D4A43F00100126848609A42B96042
:1044B80004D83A4B30461968FFF72EFF3046BDE85E
:1044C800F840FFF7D3BC0122DB087C68981013443E
:1044D8008240224307EBC30057F833400838C1E94C
:1044E80002407A60304647F83310E160BDE8F84092
:1044F800FFF7BCBC002845D1D2E90202234443F0AF
:104508000104C26090604C60CB50D7E7142A08D9E8
:10451800542A1ED81A0B02F16F05ED0002F16E0045
:1045280089E702F15C05ED0002F15B0083E71446C0
:104538008EE701238210786803FA02F202437A6058
:10454800234686E7C7E90411C1E902004C60CB5055
:10455800B4E7B2F5AA7F06D8DA0B02F17805ED00C8
:1045680002F1770067E740F25450824206D89A0C6D
:1045780002F17D05ED0002F17C005CE74FF47E75E9
:104588007E2058E743F001004860136096E700BFBB
:10459800D80B0020E00B0020E40F0020841200203C
:1045A800704700BF704700BF704700BF704700BF2B
:1045B800704700BF704700BF012070470120704757
:1045C800704700BF704700BF2DE9F04FC3B00C46DD
:1045D8000C9190460F930D9002F078FA03681846F4
:1045E8001A9302F049FFA38919901D0603D5236980
:1045F800002B00F0388700230DF1C80AD146C346C6
:10460800CDE91633CDE926331593139314931893F4
:104618001B930A93CDF894A09BF80030002B00F070
:104628009780252B5C4602D11AE0252B03D014F87D
:10463800013F002BF9D1A4EB0B0575B1DDE926325A
:1046480001332A44072BC9E900B5CDE9263277DCC6
:1046580009F108090A9B2B440A932378002B77D089
:1046680000234FF0FF301A468DF8773019460B9328
:104678009846637804F1010B09901F460BF1010B72
:10468800A7F12003582B00F27683DFE813F0D3025A
:1046980074037403CE027403740374037403740301
:1046A8007403C102BC02740368034E0374036D03F0
:1046B800B600B600B600B600B600B600B600B60042
:1046C800B6007403740374037403740374037403EB
:1046D8007403740374033603F7027403F702740354
:1046E800740374037403F20274037403A50074035F
:1046F80074037403740374037500740374039A02D7
:1047080074037403740374037403740374037403E9
:10471800740374037A012C01F702F702F7022701E8
:104728002C01740374031A0174030301A700CA005F
:10473800C5007403DA007403770074037403DB02A2
:1047480025AADDE90C1002F0C5FE40B9D14681E783
:10475800279B23B10D9825AA0C9902F0BBFE0C9B50
:104768009B8913F0400F0A9B18BF4FF0FF330A9341
:104778000A9843B0BDE8F08F48F0100818F0200FF1
:1047880000F04A850F9C073424F0070303F1080260
:10479800D3E9004501230F920026099A8DF8776026
:1047A800013200F00B8428F08002079254EA0502D7
:1047B80040F0BD80099A002A40F0CE86002B40F0D8
:1047C800EF8418F001030E9300F06285302342AAAB
:1047D80002F8413D1192CBE048F0100818F0200390
:1047E80000F00F850F9C073424F0070303F108023B
:1047F800D3E900450F920023CEE70020A7F130034C
:104808001BF8017B00EB800003EB4000A7F13003AD
:10481800092BF5D90B9033E748F020089BF80030B6
:104828002BE747F630030F9AADF87830131D0F9336
:10483800A04B1468189348F0020800250223782733
:10484800AAE700250F9A8DF877501368141D119365
:10485800002B00F03286099A531C00F0DA862946AC
:10486800119802F04FF9002800F0D087119B0995A4
:10487800C31ACDE90E34CDF81C8023EAE3739DF802
:10488800776008931295002E00F08E80089B013304
:10489800089389E0002A41F0F1800F9A18F0200F60
:1048A80052F8043B0F9240F02C8518F0100F40F09E
:1048B800298618F0400F00F02586BDF828201A80B8
:1048C800AAE69BF800306C2B03BF9BF8013048F038
:1048D80020080BF1010B48F01008CEE648F040081C
:1048E8009BF80030C9E6002A41F0C48018F0200F78
:1048F80000F00C820F9C073424F0070303F1080230
:104908000F92D3E90045002C75F10003C0F2CC8466
:10491800099B9DF87760013300F0D08428F080026D
:10492800079254EA05024FF001033FF443AF012B0D
:1049380000F04983022B00F0A083514600E01146A5
:10494800E20842EA4572E80804F0070305461446FF
:10495800303354EA050001F8013C01F1FF32EED191
:1049680007981192C00700F17684AAEB02030E9310
:10497800099B0E9A9342B8BF1346089300231293DB
:1049880081E7002301210F981E4602688DF87730D1
:1049980009931293031D0F9328AB0891CDF81C803F
:1049A8000E918DF8A0201193079B13F0020310932A
:1049B80002D0089B02330893079B279C13F08408B6
:1049C8003FD10B9B089A9D1A002D3ADD102D269B8E
:1049D80029DD4A462146A946DDE90C54102606E0A1
:1049E800A9F11009B9F1100F02F1080218DD01331D
:1049F80031481031072BCDE92631C2E90006EFDD39
:104A080025AA2946204602F065FD00287FF4A7AEB6
:104A1800DDE92631A9F11009B9F1100F5246E6DC9B
:104A28004D460C4691460133234A2C44072BCDE9C9
:104A38002634C9E9002500F369859DF8776009F1F6
:104A4800080976B10121269B0C440B440DF177022D
:104A5800072BCDE92634C9E9002100F3F88209F1D2
:104A68000809109B6BB10221269B0C4401331EAA36
:104A7800072BCDE92634C9E9002100F3F38209F1B7
:104A88000809B8F1800F00F0E681099B0E9A9D1A7B
:104A9800002D40DD102D269A40F39385DFF81C8009
:104AA8004B4640462146DDE90C94B8461026074699
:104AB8000BE000BF748B0008948B0008A48B0008DF
:104AC800103D102D03F1080315DD01321031072ABE
:104AD800CDE92621C3E90076F2DD25AA494620461C
:104AE80002F0F8FC00287FF43AAEDDE92621103DFB
:104AF800102D5346E9DC99463B460C4647469846F6
:104B080001322C44072ACDE92624C9E9008500F39F
:104B1800CB8209F10809079BDE0500F14281269B3B
:104B28000E9A013311991444072B2794C9E90012EE
:104B3800269300F3818209F10809079B5B0731D5A9
:104B48000B9B089A9D1A002D2CDD102D269B1FDD2E
:104B5800DDE90C87102604E0103D102D09F1080945
:104B680016DD0133C64A1034072BCDE92634C9E9CE
:104B78000026F1DD25AA4146384602F0ABFC0028A4
:104B88007FF4EDADDDE92634103D102DD146E8DC8B
:104B98000133BB4A2C44072BCDE92634C9E900254B
:104BA80000F36C83DDE90A3208998A42ACBF9B188E
:104BB8005B180A93002C40F09F810023D14626936E
:104BC8002AE5002A40F06A87AE4B18F0200F1893A8
:104BD80040D00F9C073424F0070303F108020F921A
:104BE800D3E9004518F0010F00F0C38054EA05032B
:104BF80000F0BF8030238DF879708DF8783048F058
:104C080002080223C8E59BF8003001222B2134E575
:104C18000F9B1C68181D002C0B949BF800300F90FC
:104C2800BFF62BAD60420B909BE048F001089BF863
:104C3800003022E59BF8003000297FF41EAD0122E8
:104C480020211AE5002A40F021878F4B18F0200F09
:104C58001893BED10F9B18F0100F53F8044B0F9305
:104C680040F01A8318F0400F00F01683A4B2002514
:104C7800B8E748F008089BF80030FEE4002A40F046
:104C8800ED860F9C073424F00706D6E9002323F0AD
:104C980000441592154610461493083621464FF0E5
:104CA800FF327A4B0F96FEF7CFFB002840F0408387
:104CB800284621464FF0FF32744BFEF7A7FB002829
:104CC80040F03683DDE91502179B1499FEF794FB33
:104CD800002840F02F859DF8776003210020CDE95A
:104CE80008106B4A6B4B472FD8BF1A4628F0800430
:104CF80007940E9112901192C5E5002A40F0C286E1
:104D080048F0100818F0200F7FF4F4AD0F9B18F04E
:104D1800100F53F8044B0F9340F0C08218F0400F67
:104D280000F0BC8224B2E517EDE59BF800700BF1AA
:104D380001002A2F00F07D86A7F13003092B834656
:104D480000F2608500201BF8017B00EB800003EB7C
:104D58004000A7F13003092BF5D9099090E49BF89E
:104D6800003048F0040888E448F080089BF80030D8
:104D780083E4022310E5002A40F08C86002F3FF4DC
:104D8800E7AC002301221E468DF877300993129371
:104D980028AB08928DF8A070CDF81C800E92119364
:104DA80002E6652F40F3B180DDE91502179B1499DF
:104DB800FEF718FB002800F082810121269B364A65
:104DC8000B440C44072B27942693C9E9002100F3D0
:104DD800EE8309F108091F9B139A279C934280F2DE
:104DE8004882269B199A01331A991444072BC9E95A
:104DF8000012CDE9263400F3558309F10809139B05
:104E08005D1E002D7FF799AE102D269A40F39F85E1
:104E1800DFF888802346102644460D9FDDF8308051
:104E280005E009F10809103D102D40F3998301327E
:104E38001033072ACDE92623C9E90046F1DD25AA62
:104E48004146384602F046FB00287FF488ACDDE98D
:104E58002623D146E7E70B9B089A9D1A002D7FF77A
:104E680014AE102D269A40F3B384DFF830804B46F9
:104E780040462146DDE90C94B8461026074614E062
:104E8800948B0008608B0008748B0008FFFFEF7F8D
:104E9800548B0008508B0008908B0008A48B0008E6
:104EA800103D102D03F1080315DD01321031072ADA
:104EB800CDE92621C3E90076F2DD25AA4946204638
:104EC80002F008FB00287FF44AACDDE92621103DFA
:104ED800102D5346E9DC99463B460C464746984612
:104EE80001322C44072ACDE92624C9E9008500F3BC
:104EF800438309F10809C8E525AADDE90C1002F089
:104F0800E9FA00283FF459AE29E4139A269B012AAE
:104F180004F1010403F1010509F1080640F3878152
:104F28000123119A072DC9F80020CDE92654C9F8A4
:104F3800043000F3F982199B01351A9A1C44072D95
:104F4800CDE92654C6E9002300F3FA8208366F1C1F
:104F58000E970997139FDDE91502179B1499013FD6
:104F680006F10809FEF73EFA002840F01F813C448C
:104F7800119B7760099F0133072F33602794269789
:104F880000F3808206F110034E469946AA1C099246
:104F98001B9A21AB14447260099A2794072A269217
:104FA80033607FF7CAADDDE90C1025AA02F092FA4A
:104FB80000287FF4D4ABD146279CBEE5012BCDF861
:104FC8001C807FF4B7AC002D08BF0A2C80F07D81CF
:104FD80042AB303403F8414D119301230E93C7E4DB
:104FE80025AADDE90C1002F075FA00287FF4B7ABAA
:104FF800D1461F9B279C1BB9139A002A00F01483E3
:10500800269A199901321A980C44072A2794C9E953
:105018000001269200F3068409F10809002BC0F26A
:105028003F84139B013211991C44072ACDE9262499
:10503800C9E900137FF77FADDDE90C1025AA02F05E
:1050480049FA00287FF48BAB279CD14675E525AA41
:10505800DDE90C1002F03EFA00287FF480ABD1465F
:10506800279CFEE425AADDE90C1002F033FA00289B
:105078007FF475ABD146279C03E55246DDF860C046
:10508800230943EA0573280904F00F0105461C4665
:105098001CF8013002F8013D54EA0503F0D1AAEBEF
:1050A800020311920E9363E425AADDE90C1002F0C5
:1050B80011FA00287FF453ABD146279C2BE51F9BA0
:1050C800002B40F36582DDE912329342A8BF1346F4
:1050D800002B1D460CDD269B119A01332C44072B0F
:1050E8002794C9E90025269300F32A8309F10809C2
:1050F800129B002DA8BF5B1B002B1D4600F38C8163
:105108001F9B139A9342C0F2EE81079AD10700F1D0
:10511800EA81139A1298D31A151A9D42A8BF1D4600
:10512800002D0FDD269A1199013201442C44072ADB
:10513800C9F800102794C9F80450269200F3348364
:1051480009F10809002DB4BF1D465D1B002D7FF72E
:10515800F4AC102D269A40F3FA83DFF870862346C4
:10516800102644460D9FDDF8308005E009F1080956
:10517800103D102D40F3F48101321033072ACDE998
:105188002623C9E90046F1DD25AA4146384602F042
:10519800A1F900287FF4E3AADDE92623D146E7E751
:1051A800099BCDF844A00E93FFF7E2BB002F7FF7D1
:1051B800EFAE102F40F31A84DFF8108633462246EC
:1051C800DDE90D4546464FF01009DDF8308005E071
:1051D8000833103F102F40F3F88101351032072DA6
:1051E800CDE92652C3E90069F2DD25AA41462046E9
:1051F80002F070F900287FF4B2AADDE9265253467E
:10520800E7E70F9A52F8044B0F9218F0100200F0DB
:1052180087800025FFF7C0BA0F9B18F0100F53F8CE
:10522800044B0F9374D000250123FFF7B5BA079AF2
:10523800D2073FF575AE01221199072DC9F8001064
:10524800CDE92654C9F8042000F39D82023309935E
:1052580009F110099CE6302B00F03F813023119AA8
:10526800023902F8013CAAEB01030E931191FFF7F2
:105278007FBB079BDD073FF5B4AD5EE425AADDE9FA
:105288000C1002F027F900287FF469AA279C89E40A
:10529800CDF844A0FFF76CBB0025A3E4E517002C6C
:1052A80075F10003BFF634AB2D26099B644265EB0C
:1052B800450501338DF877607FF430AB002D08BFCA
:1052C8000A2CCDF81C80FFF483AED0462046294630
:1052D8000A220023FEF7F6F8303208F8012D20469E
:1052E800294600230A22FEF7EDF804460D4654EA43
:1052F8000503EBD1AAEB0803CDF844800E93FFF722
:1053080037BB0A9A1046D117C3E90001FFF784B9E1
:1053180018F0400F18BFA4B200250123FFF73CBACC
:1053280018F040031CBF1346A4B20025FFF734BA97
:10533800159C22462046149C23462146FEF784F8F5
:10534800002840F02E83099A27F02003541C089364
:1053580000F04282472B00F06C8148F48073079379
:10536800DDE914361D1EB6BF03F1004500232D23C9
:10537800662F109300F03382462F00F07482089B4A
:105388003246452B4FF002002B4600F05881099C0D
:1053980023A9CDE90004049120A81FA9CDE9021092
:1053A8000D9800F079FC672F119040F0548318F0A5
:1053B800010F00F06981119B099A9C18169A3046D2
:1053C800179B2946FEF70EF8002800F0D0812346E7
:1053D800119A9B1A13931F9B1293089B472B00F05B
:1053E8005C81662F40F06081129B002B099B40F383
:1053F800F582002B40F0E88218F0010F40F0E482BB
:10540800129B08930E93109B002B40F07A8109930E
:105418009DF87760FFF737BA102B269A40F3EA8297
:10542800DFF8A8832346102644460D9FDDF8308018
:1054380005E009F10809103D102D40F3DC80013228
:105448001033072ACDE92623C9E90046F1DD25AA4C
:105458004146384602F03EF800287FF480A9DDE98D
:105468002623D146E7E740210D98FEF71DFA0C9B4D
:1054780018601861002800F0F58240230C9A5361E7
:10548800FFF7B9B825AADDE90C1002F023F80028C7
:105498007FF465A9DDE92634013309930DF1D009BC
:1054A800564675E525AADDE90C1002F013F8002828
:1054B8007FF455A9D146279CA1E4099B119E062B90
:1054C80028BF062308930E93BE4B09960F94CDF878
:1054D8001C8012961193FFF7D6B9119BAAEB030310
:1054E8000E93FFF745BA269A199901321A980C4477
:1054F800072A2794C9E90001269200F32C8109F1B3
:10550800080906E60A9A1A60FFF786B825AADDE9AF
:105518000C1001F0DFFF00287FF421A9D1469DF887
:105528007760279CFFF78DBA25AADDE90C1001F0FA
:10553800D1FF00287FF413A9DDE926545646FAE482
:1055480025AADDE90C1001F0C5FF00287FF407A9A2
:10555800DDE926545646FAE4012B7FF4EBA937E53A
:10556800A0461C4601322C44072ACDE92624C9E965
:1055780000857FF7E0AA5FE525AADDE90C1001F0B8
:10558800A9FF00287FF4EBA8D146279CFFF77DBA36
:105598000120269A8C4902440444072ACDE926248E
:1055A800C9E900103FF71CAD09F1080923E525AA50
:1055B800DDE90C1001F08EFF00287FF4D0A8D14659
:1055C80009E4DFF80882FFF79BBAB0461E466B1C59
:1055D8001446099306F10802099B3C44072B2794BB
:1055E800C6E9008726933FF74DAF0133099302F1CF
:1055F80008091646CCE4A0461C4601322C44072A6A
:10560800CDE92624C9E9008500F33F8109F108099D
:1056180076E51198099501F02FFFCDF81C80CDE9AA
:105628000E040346FFF729B9079AD0077FF585AA24
:10563800E6E4002A134608BF012309938DE6099979
:1056480000904C1C23A920A804911FA9CDE90210A1
:1056580001940D980E9400F01FFB1190472F40F015
:10566800E38118F0010F00F0D881119B0E9A462FA4
:1056780003EB02047FF4A2AE119B1B78302B00F0E1
:1056880069811F9B1C4499E61F9A239B1292119AC9
:105698009B1A1393089B472B06D1129BDA1C02DB3B
:1056A800099A9A4234DA023F129B8DF88470013BC2
:1056B800002BB4BF2D222B221F93B8BF129B8DF84D
:1056C8008520B8BFC3F10103092B00F30D813022F7
:1056D80013448DF887308DF8862022AB21AA9B1AB7
:1056E800139A1B93012A13440E9340F350810E9B87
:1056F800199A13440E9323EAE37308930023129331
:1057080081E62D2600238DF877600993FFF7BEB850
:10571800DDE912318B42C0F2938018F0010F00F0DE
:105728001081129B199A672713440E9323EAE37397
:10573800089368E62D231E468DF87730FFF7CDBA1B
:1057480025AADDE90C1001F0C5FE00287FF407A8A2
:10575800D146279CCCE425AADDE90C1001F0BAFE5D
:1057680000287EF4FCAFD1461F9B279CD1E4239BE5
:10577800A342BFF42DAE30215A1C23921970239BEB
:105788009C42F9D824E625AADDE90C1001F0A2FE16
:1057980000287EF4E4AFDDE9263401335646099348
:1057A8000DF1D009FFF7F4BB25AADDE90C1001F0D3
:1057B80091FE00287EF4D3AF1F9B139AD146279CF5
:1057C800D31ABFE4888B0008908B0008A48B0008CC
:1057D800DFF8DC82FFF784BB06230993BDE50320CD
:1057E800099C23A9CDE90004049120A81FA9CDE9AB
:1057F800021032462B460D9800F04EFA0E94119086
:10580800041939E700230993FEF73ABF099B0F945F
:1058180008930E930990CDF81C8012909DF877603C
:10582800FFF731B825AADDE90C1001F053FE002876
:105838007EF495AFDDE92624D1461F9BFFF7EEBB2A
:10584800199A139B1344129A0E93002A06DC129B92
:105858000E9AC3F101031A4413460E9223EAE37326
:1058680008936727CFE50320099C23A9CDE9000405
:10587800049120A81FA9CDE9021032462B460D98A5
:1058880000F00AFA0E941190EFE625AADDE90C1053
:1058980001F020FE00287EF462AFD146279C2FE459
:1058A8005D42103380F2D180DFF80482234610264F
:1058B8000D9F444604E009F10809103D102D58DDFC
:1058C80001321033072ACDE92623C9E90046F2DD63
:1058D80025AA0C99384601F0FDFD00287EF43FAF5B
:1058E800DDE92623D146E8E70DF1930001466D4C2A
:1058F80000E01146A4FB0325ED0805EB8502A3EBA8
:1059080042023032092D01F8012C2B4601F1FF32F9
:10591800EFDC30330239DCB2884202F8014C40F245
:1059280097800DF18601134601E013F8014B984268
:1059380001F8014BF9D125AB9B1A0DF186021344EE
:10594800CCE623EAE37208920E9367275BE5DFF85B
:10595800608107E6169A3046179B2946FDF742FDF7
:1059680000287FF48EAE0E9BC3F101031F931C44E5
:1059780024E5A0461C4601322C44072ACDE92624FA
:10598800C9E900853CDC09F10809FFF74ABB18F0B2
:10599800010312937FF4ABAE0E9B23EAE3730893E3
:1059A80031E5149B0321002BB8BF2D234FF00000D5
:1059B800BABF1E468DF877309DF87760CDE908109C
:1059C800394A3A4BFFF78FB9129B199A1344099A2F
:1059D8001A4422EAE2730E92089314E56BB918F0A0
:1059E800010F0AD1012308930E930CE54A46DFF80C
:1059F800C080F1E5DFF8B880FFE5199B0133E6E7E1
:105A080025AADDE90C1001F065FD00287EF4A7AE9B
:105A1800DDE92624D146FFF704BB1F9A239B129287
:105A2800119A9B1A139338E60E9B119A13441C463D
:105A3800C4E40F9D9BF801302C68834644EAE47463
:105A4800281D09940F90FEF718BEDFF8648092E7CE
:105A58000DF1860342E6099B0E93FFE58DF877105A
:105A6800FFF70FB94FF0FF320C230A920D9A13601B
:105A7800FEF77EBE8DF87710FEF738BF8DF87710E9
:105A8800FEF70BBF8DF87710FFF73AB98DF877104E
:105A9800FFF7DBB88DF87710FFF770B98DF877103E
:105AA800FFF792B8CDCCCCCC5C8B0008588B0008A3
:105AB800A48B00082DE9F8432B4D06462868984624
:105AC8000F469146FEF776FD284B1C68D4F84831FE
