:020000040800F2
:1000000000000120E5130008291400082914000845
:100010002914000829140008291400080000000011
:10002000000000000000000000000000291400088B
:1000300029140008000000002914000829140008F1
:10004000291400082914000829140008291400089C
:10005000291400082914000829140008291400088C
:10006000291400082914000829140008291400087C
:10007000291400082914000829140008291400086C
:10008000291400082914000829140008291400085C
:10009000291400082914000829140008291400084C
:1000A000291400082914000829140008291400083C
:1000B000291400082914000829140008291400082C
:1000C000291400082914000829140008291400081C
:1000D00029140008230D0008291400082914000819
:1000E00029140008291400082914000829140008FC
:1000F00029140008291400082914000829140008EC
:1001000029140008291400082914000829140008DB
:1001100029140008291400082914000829140008CB
:1001200029140008291400082914000829140008BB
:1001300000000000000000000000000000000000BF
:1001400000000000000000000000000000000000AF
:10015000000000000000000000000000000000009F
:10016000000000000000000000000000000000008F
:10017000000000000000000000000000000000007F
:10018000000000000000000000000000000000006F
:10019000000000000000000000000000000000005F
:1001A000000000000000000000000000000000004F
:1001B000000000000000000000000000000000003F
:1001C000000000000000000000000000000000002F
:1001D000000000000000000000000000000000001F
:0401E0005FF8E0F1F3
:1001E40010B5054C237833B9044B13B10448AFF36D
:1001F40000800123237010BD4C0400200000000087
:10020400EC17000808B5034B1BB103490348AFF3CF
:10021400008008BD0000000050040020EC17000816
:10022400154B002B08BF134B9D46A3F5803A0021C4
:100234008B460F461348144A121A01F029F90F4B42
:10024400002B00D098470E4B002B00D0984700207D
:10025400002104000D000D48002802D00C4801F0D4
:100264000DFA01F0F1F82000290000F0D5F801F0B2
:10027400DBF800BF000008000000000000000000E0
:10028400000000004C040020C40500208116000872
:100294008D16000880B483B000AF0346FB710E4B8B
:1002A4001B680D4A23F004031360FB79DB08DAB200
:1002B4000A4B1A70094B1B789BB21A465201D21A88
:1002C40092001344DB009AB2054B1A8000BF0C372E
:1002D400BD4680BC704700BF10E000E06804002009
:1002E4006A04002080B485B000AF7860124B1B789C
:1002F4001946124A7B6803FB01F353600F4B00223B
:100304009A600E4B01221A600C4B1B68FB60FB6861
:1003140003F00103002B04D0FB6803F48033002BAB
:10032400F2D0064B00221A60044B00229A6000BFF0
:100334001437BD4680BC70476804002010E000E01C
:1003440080B485B000AF0346FB80FB88124A128854
:100354001146124A01FB03F35360104B00229A60CA
:100364000E4B01221A600D4B1B68FB60FB6803F007
:100374000103002B04D0FB6803F48033002BF2D07C
:10038400064B00221A60054B00229A6000BF143706
:10039400BD4680BC704700BF6A04002010E000E046
:1003A40080B400AF194B9B69184A43F0040393616E
:1003B400164B9B69154A43F020039361144B5B6809
:1003C400134A23F00F035360114B5B68104A43F048
:1003D400030353600E4BDB680D4A43F48073D36010
:1003E4000C4B1B680B4A23F470631360094B1B68A6
:1003F400084A43F440731360064BDB68054A43F034
:100404000403D36000BFBD4680BC704700100240A7
:10041400000801400014014080B500AF092000F03D
:10042400A9FA4820FFF736FFFFF7BAFF4FF4165139
:10043400482000F0C9FC0D4B01221A600C4B00222D
:100444001A604FF47A70FFF77BFF6F230A22094981
:10045400094800F060F8054B00221A60044B0122A1
:100464001A604FF47A70FFF76BFFE4E7A0012142B2
:1004740088812242AC170008B817000880B582B002
:1004840000AF0346FB71FB79184600F013FC00BF74
:100494000837BD4680BD80B582B000AF78607B6808
:1004A400002B1DD07B68104A82FB03129210DB17CD
:1004B400D31A1846FFF7EFFF7A680B4B83FB02133E
:1004C4009910D317C91A0B469B000B445B00D11A31
:1004D400CBB23033DBB2184600F0ECFB00BF00E0D7
:1004E40000BF0837BD4680BD6766666680B582B0CA
:1004F40000AF786007E07B681B78184600F0DAFBF1
:100504007B6801337B607B681B78002BF3D100BFD1
:100514000837BD4680BD0FB480B584B000AF07F185
:100524001C03FB6072E0BB691B78252B08D0BB69F8
:100534001B78184600F0BEFBBB690133BB6165E064
:10054400BB690133BB61BB691B78633B102B54D877
:1005540001A252F823F000BFD9050008A105000844
:10056400FF050008FF050008FF050008FF05000857
:10057400FF050008FF050008FF050008FF05000847
:10058400FF050008FF050008FF050008F70500083F
:10059400FF050008FF050008BD050008FB680433DB
:1005A400FB60FB6853F8043C7B607868FFF773FFDB
:1005B400BB690133BB6129E0FB680433FB60FB6862
:1005C40053F8043CBB60B868FFF790FFBB69013384
:1005D400BB611BE0FB680433FB60FB6813F8043C5D
:1005E400FB70FB781846FFF749FFBB690133BB6119
:1005F4000CE0BB690133BB6108E0BB691B7818469A
:1006040000F058FBBB690133BB6100BFBB691B78B9
:10061400002B88D10023FB6000BF1037BD46BDE826
:10062400804004B0704700BF041800080000002098
:100634004C0400204C040020C405002080B483B086
:1006440000AF786039603B6823F0604323F07F0398
:1006540004497A6813438B6000BF0C37BD4680BCE5
:10066400704700BF00ED00E080B485B000AF0346E2
:10067400FB71FB79DB4303F00703FB60FB681B02A0
:10068400FB600D4BDB68BB60BA684FF6FF03134099
:10069400BB60BB6843F0BF6343F40033BB60BA681C
:1006A400FB681343BB60044ABB68D36000BF1437C4
:1006B400BD4680BC704700BF00ED00E090B585B03A
:1006C40000AF0446084611461A462346FB7103460A
:1006D400BB710B467B7113463B713B791846FFF7A0
:1006E400C3FFFA793B79C3F1040302FA03F3FB6015
:1006F400BA793B790F2141FA03F313401A46FB6898
:100704001343FB60FB6803F00F03FB60134A7B7920
:100714005B09D8B2034652F823307A7902F01F02FB
:10072400012101FA02F214460C4A0146234342F81D
:1007340021300A4A7B79134493F80033D9B2FB6819
:10074400DBB21B01DAB205487B790A43D2B2034417
:1007540083F8002300BF1437BD4690BD00E100E0DC
:1007640080B485B000AF0346FB710B46BB711346E2
:100774007B71BB799B08FB73BB7903F00303DBB28A
:100784009B00BB73294B9B69284A43F00103936187
:10079400274AFB7B023352F82320BB7B0F2101FA4B
:1007A40003F3DB4318462249FB7B0240023341F842
:1007B40023201F4AFB7B023352F82320F979BB7BA9
:1007C40001FA03F318461A49FB7B0243023341F84A
:1007D4002320184B1B68BA79012101FA02F2114651
:1007E400144A0B4313607B7903F00103002B09D0F7
:1007F400104BDB68BA79012101FA02F211460D4A65
:100804000B43D3607B7903F00203002B09D0094B1F
:100814009B68BA79012101FA02F21146054A0B4399
:10082400936000BF1437BD4680BC7047001002407F
:10083400000001400004014080B500AF1C4B0022C1
:100844001A611B4B0022DA60194B14225A61184BAF
:1008540000229A61164B0022DA61154B1B68144A78
:1008640043F001031360124B5A681149114B1340B2
:100874004B600F4B1B680E4A23F0847323F48033C0
:1008840013600B4B1B680A4A23F480231360084B44
:100894005B68074A23F4FE035360054B00229A6009
:1008A40000214FF00060FFF7C9FE00BF80BD00BF0C
:1008B400001002400000FFF880B400AF104B1B6929
:1008C4000F4A43F0040313610E4BDB690D4A43F0F6
:1008D4008053D3610C4B5B680B4A43F480735360C1
:1008E400094B1B68084A43F004031360064B1B685A
:1008F400054A43F00203136000BFBD4680BC704745
:1009040000ED00E0001002400070004080B400AF31
:10091400034B044ADA6000BFBD4680BC704700BF89
:1009240000ED00E00400FA0580B485B000AF034692
:10093400FB71FB79FB60FB685B06FB600B4B9B69FF
:100944000A4A43F001039361094B5B68084A23F0A8
:10095400E0635360064B5A680549FB6813434B60D8
:1009640000BF1437BD4680BC704700BF0010024072
:100974000000014080B584B000AF0346FB71002342
:10098400FB73FFF759FF244B1B68234A43F480335E
:10099400136000BF204B1B685B0C002BFAD01E4B6E
:1009A4004FF480625A60FB79023BFB711A4B5B681F
:1009B400FA7992041146184A0B435360164B5B684C
:1009C400154A43F480335360144B1B68134A43F0B5
:1009D40032031360104B1B680F4A43F0807313609B
:1009E40000BF0D4B1B685B0E002BFAD00A4B5B68F3
:1009F400094A43F00203536007E0074B5B689B0816
:100A0400FB73FB7B03F00303FB73FB7B022BF4D12F
:100A140000BF1037BD4680BD0010024000200240D8
:100A240080B500AF154B1B68144A43F001031360F3
:100A3400124B5A681149124B13404B600F4B1B6801
:100A44000E4A23F0847323F4803313600B4B1B682A
:100A54000A4A23F480231360084B5B68074A23F493
:100A6400FE035360054B4FF41F029A6000F078F8C0
:100A7400044B4FF000629A6000BF80BD001002403A
:100A84000000FFF800ED00E080B485B000AF002363
:100A9400FB600023BB6000237B602C4B5B6803F08E
:100AA4000C03FB60FB68042B07D0082B09D0002B38
:100AB40033D1274B274A1A6033E0254B254A1A6065
:100AC4002FE0224B5B6803F47013BB601F4B5B6821
:100AD40003F480337B60BB689B0C0233BB607B6890
:100AE400002B06D1BB681C4A02FB03F3184A1360AF
:100AF40017E0164B5B6803F40033002B06D0BB6889
:100B0400154A02FB03F3124A13600AE0BB68114A58
:100B140002FB03F30E4A136003E00D4B0D4A1A6007
:100B240000BF0A4B5B681B0903F00F030B4AD35C3D
:100B3400DBB2FB60064B1A68FB6822FA03F3044A33
:100B4400136000BF1437BD4680BC704700100240DC
:100B54000400002000127A0000093D000800002073
:100B640080B500AF00F002F800BF80BD80B483B050
:100B740000AF00237B6000233B603A4B1B68394A7B
:100B840043F480331360374B1B6803F400333B603A
:100B94007B6801337B603B68002B03D17B68B3F532
:100BA400A06FF0D12F4B1B6803F40033002B02D04D
:100BB40001233B6001E000233B603B68012B4BD1E8
:100BC400294B1B68284A43F010031360264B1B680B
:100BD400254A23F003031360234B1B68224A43F086
:100BE400020313601F4B1F4A5B6853601D4B1D4A71
:100BF4005B6853601B4B5B681A4A43F48063536021
:100C0400184B5B68174A23F47C135360154B5B68DD
:100C1400144A43F4E8135360124B1B68114A43F01F
:100C24008073136000BF0F4B1B6803F00073002B2D
:100C3400F9D00C4B5B680B4A23F003035360094B58
:100C44005B68084A43F00203536000BF054B5B68CE
:100C540003F00C03082BF9D100BF0C37BD4680BC50
:100C6400704700BF001002400020024080B483B0EF
:100C740000AF7860002318460C37BD4680BC70472F
:100C840080B483B000AF7860396000BF084B1B8824
:100C94009BB203F04003002BF8D07B68DAB2044B1C
:100CA40092B29A807B6818460C37BD4680BC704768
:100CB4000038014080B483B000AF0346FB7100BF2D
:100CC400074B1B889BB203F04003002BF8D0044B66
:100CD400FA7992B29A8000BF0C37BD4680BC704747
:100CE4000038014080B584B000AF7860786800F0C7
:100CF40019FCB8600023FB6009E07A68FB681344C0
:100D04001B781846FFF7D6FFFB680133FB60FA68CF
:100D1400BB689A42F1D300BF1037BD4680BD80B492
:100D240083B000AF254B1B889BB203F02003002B3C
:100D34003ED0224B9B889BB2FB71214B1B881BB27C
:100D4400002B35DB1E4B1B8803F48043002B10D093
:100D5400FB790A2B03D01A4B00221A8028E0184B87
:100D64001B886FEA43436FEA53439AB2144B1A80C9
:100D74001EE0FB790D2B07D1114B1B8843F48043F4
:100D84009AB20F4B1A8013E00D4B1B88C3F30D036B
:100D94000C49FA79CA540A4B1B8801339AB2084B9E
:100DA4001A80074B1B88C72B02D9054B00221A80D7
:100DB40000BF0C37BD4680BC704700BF00380140FF
:100DC4006C0400207004002090B585B000AF7860FA
:100DD40039607B683F4A02FB03F3184600F038F998
:100DE40004463B681B01184600F032F903461946D5
:100DF400204600F039FA0346FB60F86800F0D0FAA8
:100E040003467B817B89184600F026F90346194680
:100E1400F86800F06BF803464FF08341184600F081
:100E24006FF90346184600F0BBFA03463B817B8901
:100E34001B017B817A893B8913447B81264B9B6907
:100E4400254A43F004039361234B9B69224A43F4EC
:100E540080439361214B5B68204A23F47F63536092
:100E64001E4B5B681D4A43F40B6353601A4BDB68EB
:100E7400194A43F48043D360174BDB68164A23F4C2
:100E84008043D360164A7B891381154B9B899BB29F
:100E9400134A43F4005343F00C039BB29381104B69
:100EA4009B899BB20E4A43F480739BB293810C4B93
:100EB4009B899BB20A4A43F020039BB2938102238D
:100EC400252203210320FFF7F9FB00BF1437BD4699
:100ED40090BD00BF40420F000010024000080140D6
:100EE4000038014080F0004002E000BF81F0004182
:100EF40042001FBF5FEA410392EA030F7FEA226CBC
:100F04007FEA236C6AD04FEA1262D2EB1363C1BF4B
:100F1400D218414048404140B8BF5B42192B88BFBA
:100F2400704710F0004F40F4000020F07F4018BFDD
:100F3400404211F0004F41F4000121F07F4118BFFD
:100F4400494292EA030F3FD0A2F1010241FA03FCA5
:100F540010EB0C00C3F1200301FA03F100F000438D
:100F640002D5494260EB4000B0F5000F13D3B0F155
:100F7400807F06D340084FEA310102F10102FE2AC4
:100F840051D2B1F1004F40EBC25008BF20F0010034
:100F940040EA03007047490040EB000010F4000FE2
:100FA400A2F10102EDD1B0FA80FCACF1080CB2EB75
:100FB4000C0200FA0CF0AABF00EBC25052421843D4
:100FC400BCBFD0401843704792F0000F81F4000179
:100FD40006BF80F400000132013BB5E74FEA41034C
:100FE4007FEA226C18BF7FEA236C21D092EA030FB8
:100FF40004D092F0000F08BF0846704790EA010F32
:101004001CBF0020704712F07F4F04D1400028BF5E
:1010140040F00040704712F100723CBF00F5000040
:10102400704700F0004343F0FE4040F40000704776
:101034007FEA226216BF08467FEA23630146420222
:1010440006BF5FEA412390EA010F40F48000704735
:101054004FF0000304E000BF10F0004348BF4042DB
:101064005FEA000C08BF704743F0964301464FF017
:1010740000001CE050EA010208BF70474FF0000373
:101084000AE000BF50EA010208BF704711F00043B4
:1010940002D5404261EB41015FEA010C02BF844684
:1010A4000146002043F0B64308BFA3F18053A3F5E3
:1010B4000003BCFA8CF2083AA3EBC25310DB01FA2A
:1010C40002FC634400FA02FCC2F12002BCF1004FAE
:1010D40020FA02F243EB020008BF20F0010070473F
:1010E40002F1200201FA02FCC2F1200250EA4C0093
:1010F40021FA02F243EB020008BF20EADC707047D9
:101104004FF0FF0C1CEAD0521EBF1CEAD15392EAE6
:101114000C0F93EA0C0F6FD01A4480EA010C4002C2
:1011240018BF5FEA41211ED04FF0006343EA50101C
:1011340043EA5111A0FB01310CF00040B1F5000F5E
:101144003EBF490041EAD3715B0040EA010062F10D
:101154007F02FD2A1DD8B3F1004F40EBC25008BFF7
:1011640020F00100704790F0000F0CF0004C08BF15
:1011740049024CEA502040EA51207F3AC2BFD2F1E2
:10118400FF0340EAC250704740F400004FF00003F0
:10119400013A5DDC12F1190FDCBF00F0004070472A
:1011A400C2F10002410021FA02F1C2F1200200FA68
:1011B40002FC5FEA310040F1000053EA4C0308BF2F
:1011C40020EADC70704792F0000F00F0004C02BF80
:1011D400400010F4000F013AF9D040EA0C0093F0FB
:1011E400000F01F0004C02BF490011F4000F013B55
:1011F400F9D041EA0C018FE70CEAD15392EA0C0FC3
:1012040018BF93EA0C0F0AD030F0004C18BF31F02D
:10121400004CD8D180EA010000F00040704790F003
:10122400000F17BF90F0004F084691F0000F91F0A7
:10123400004F14D092EA0C0F01D142020FD193EA6D
:101244000C0F03D14B0218BF084608D180EA0100F5
:1012540000F0004040F0FE4040F40000704740F0D1
:10126400FE4040F4400070474FF0FF0C1CEAD0529F
:101274001EBF1CEAD15392EA0C0F93EA0C0F69D0FB
:10128400A2EB030280EA010C49024FEA402037D066
:101294004FF0805343EA111143EA10130CF000405D
:1012A4008B4238BF5B0042F17D024FF4000C8B424D
:1012B40024BF5B1A40EA0C00B3EB510F24BFA3EB2D
:1012C400510340EA5C00B3EB910F24BFA3EB9103FD
:1012D40040EA9C00B3EBD10F24BFA3EBD10340EA57
:1012E400DC001B0118BF5FEA1C1CE0D1FD2A3FF69D
:1012F40050AF8B4240EBC25008BF20F00100704752
:101304000CF0004C4CEA50207F32C2BFD2F1FF03F4
:1013140040EAC250704740F400004FF00003013A25
:1013240037E792F0000F00F0004C02BF400010F4C9
:10133400000F013AF9D040EA0C0093F0000F01F0DD
:10134400004C02BF490011F4000F013BF9D041EAFF
:101354000C0195E70CEAD15392EA0C0F08D1420232
:101364007FF47DAF93EA0C0F7FF470AF084676E705
:1013740093EA0C0F04D14B023FF44CAF08466EE7DE
:1013840030F0004C18BF31F0004CCAD130F00042AC
:101394007FF45CAF31F000437FF43CAF5FE700BF04
:1013A40042000ED2B2F1FE4F0BD34FF09E03B3EBCB
:1013B400126209D44FEA002343F0004323FA02F0F7
:1013C40070474FF00000704712F1610F01D14202E3
:1013D40002D14FF0FF3070474FF00000704700BF5C
:1013E400002103E00A4B5B584350043109480A4B7F
:1013F40042189A42F6D3094A02E0002342F8043B19
:10140400074B9A42F9D3FFF70BFBFFF705F8704738
:1014140004180008000000204C0400204C040020A4
:10142400C4050020FEE7000008B50021044600F0D2
:10143400B1F8044B1868C36B03B19847204600F019
:10144400B1F900BFD017000870B50D4E0D4D761BD5
:10145400B61006D00024013455F8043B9847A64240
:10146400F9D1094E094D00F0B3F9761BB61006D038
:101474000024013455F8043B9847A642F9D170BDC5
:10148400F8170008F817000800180008F8170008F3
:10149400F0B4860743D0541E002A3ED0CAB2034695
:1014A40002E014F1FF3438D303F8012B9D07F8D17F
:1014B400032C2BD9CDB245EA05250F2C45EA054569
:1014C40016D9A4F110073F0903F1200606EB07160D
:1014D40003F1100242E9045542E902551032B242C6
:1014E400F8D104F00F040137032C03EB07130DD9D3
:1014F4001E462246043A032A46F8045BFAD8221F01
:1015040022F003020432134404F003042CB1C9B2E0
:101514001C4403F8011B9C42FBD1F0BC70471446E9
:101524000346C5E720F0030110F00300C0F10000FA
:1015340051F8043B00F1040C4FEACC0C6FF00002AC
:101544001CBF22FA0CF213434FF0010C4CEA0C2C92
:101554004CEA0C4CA3EB0C0222EA030212EACC1272
:1015640004BF51F8043B0430F4D0C2F1000102EA94
:101574000102B2FA82F2C2F11F0200EBD2007047FC
:10158400024B13B1024800F079B870470000000024
:101594008D1600082DE9F04F0F46B946344B85B03F
:1015A4000390186800F094F8324B1B68019303F51C
:1015B400A4730293019BD3F848613EB34FF0010832
:1015C400DDF808A07468651E0FD40027013406EB0B
:1015D4008404B9F1000F20D0D4F800314B451CD05D
:1015E400013D6B1CA4F10404F3D1234B73B1D6E980
:1015F4000032002A34D1002B32D03046CAF80030F1
:10160400AFF30080DAF80060002EDBD1184B1868C5
:1016140005B0BDE8F04F00F063B873682268013B81
:10162400AB420CBF75602760002AD9D0D6F8881168
:1016340008FA05F30B42D6F804B008D19047736852
:101644005B45B7D1DAF80030B342C9D0B2E7D6F877
:101654008C01D4F88010034207D103989047EEE739
:10166400B2461E46002EADD1D0E708469047E6E7C5
:1016740048040020D01700080000000000230146A1
:101684001A46184600F02EB838B50A4C0A4D641BA9
:10169400A4100AD004F18043013B05EB8305013C0F
:1016A40055F804399847002CF9D1BDE8384000F0CA
:1016B40095B800BF0418000800180008704700BF60
:1016C400704700BF704700BF704700BF704700BF3E
:1016D400704700BF0120704701207047704700BF6A
:1016E400704700BF2DE9F8432B4D064628689846FD
:1016F4000F469146FFF7ECFF284B1C68D4F848319D
:10170400002B3DD05A681F2A0DDC02F1010C16BBD8
:101714000232C3F804C0286843F82270FFF7E0FFE0
:101724000020BDE8F8831E4B7BB34FF4C870AFF3C1
:101734000080034648B30020D4F848114FF0010C50
:10174400C3E900100246C4F84831C3F88801C3F85D
:101754008C01002EDCD0012103EB8204C4F88890B4
:10176400D3F8880191400843022EC3F88801C4F8D5
:101774000881CDD1D3F88C010143C3F88C11C7E79C
:1017840004F5A673C4F84831BCE72868FFF7A8FF3E
:101794004FF0FF30C5E700BF48040020D017000811
:1017A40000000000FEE700BF73737373717161641E
:1017B4007363000068656C6C6F20776F726C6421D2
:1017C4002025732025642025630D0A0020000020B5
:1017D400F8B500BFF8BC08BC9E467047F8B500BF1A
:0817E400F8BC08BC9E467047EA
:0417EC0000000000F9
:0817F00034EAFF7F0100000054
:0817F800851500080902000834
:04180000E5010008F6
:101804000000000000A24A040000000000000000E4
:10181400010203040607080920000020000000005C
:10182400000000000C03002074030020DC030020EF
:1018340000000000000000000000000000000000A4
:101844000000000000000000000000000000000094
:101854000000000000000000000000000000000084
:101864000000000000000000000000000000000074
:101874000000000000000000000000000000000064
:101884000000000000000000000000000000000054
:101894000000000000000000000000000000000044
:1018A4000000000000000000000000000000000034
:1018B4000000000000000000000000000000000024
:1018C4000000000000000000010000000000000013
:1018D4000E33CDAB34126DE6ECDE05000B000000D8
:1018E40000000000000000000000000000000000F4
:1018F40000000000000000000000000000000000E4
:1019040000000000000000000000000000000000D3
:1019140000000000000000000000000000000000C3
:0C1C44000000000000000000A0050020CF
:04000005080013E5F7
:00000001FF
