:020000040800F2
:10000000000001209D130008E1130008E11300081F
:10001000E1130008E1130008E113000800000000EC
:10002000000000000000000000000000E1130008D4
:10003000E113000800000000E1130008E1130008CC
:10004000E1130008E1130008E1130008E1130008C0
:10005000E1130008E1130008E1130008E1130008B0
:10006000E1130008E1130008E1130008E1130008A0
:10007000E1130008E1130008E1130008E113000890
:10008000E1130008E1130008E1130008E113000880
:10009000E1130008E1130008E1130008E113000870
:1000A000E1130008E1130008E1130008E113000860
:1000B000E1130008E1130008E1130008E113000850
:1000C000E1130008E1130008E1130008E113000840
:1000D000E1130008E10B0008E1130008E113000838
:1000E000E1130008E1130008E1130008E113000820
:1000F000E1130008E1130008E1130008E113000810
:10010000E1130008E1130008E1130008E1130008FF
:10011000E1130008E1130008E1130008E1130008EF
:10012000E1130008E1130008E1130008E1130008DF
:1001300000000000000000000000000000000000BF
:1001400000000000000000000000000000000000AF
:10015000000000000000000000000000000000009F
:10016000000000000000000000000000000000008F
:10017000000000000000000000000000000000007F
:10018000000000000000000000000000000000006F
:10019000000000000000000000000000000000005F
:1001A000000000000000000000000000000000004F
:1001B000000000000000000000000000000000003F
:1001C000000000000000000000000000000000002F
:1001D000000000000000000000000000000000001F
:0401E0005FF8E0F1F3
:1001E40010402DE928409FE50030D4E5000053E39A
:1001F4000500001A1C309FE5000053E318009F150A
:1002040000F020130130A0E30030C4E51040BDE845
:100214001EFF2FE14C0400200000000034190008E8
:100224001C309FE5000053E31EFF2F0110402DE911
:1002340010109FE510009FE500F020E31040BDE89A
:100244001EFF2FE1000000005004002034190008B4
:10025400F0309FE5000053E3E4309F0503D0A0E1B4
:1002640000200FE10F0012E31500000AD1F021E392
:1002740003D0A0E101AA4DE20A30A0E1D7F021E3C6
:1002840003D0A0E1013A43E2DBF021E303D0A0E193
:10029400013A43E2D2F021E303D0A0E1023A43E27F
:1002A400D3F021E303D0A0E1023943E2FF30C3E3FA
:1002B400FF3CC3E3043003E5002053E9C02082E39C
:1002C40002F021E101A843E20010B0E301B0A0E193
:1002D4000170A0E178009FE578209FE5002052E0BE
:1002E4006D0400EB60309FE5000053E30100000A59
:1002F4000FE0A0E103F0A0E150309FE5000053E3DC
:100304000100000A0FE0A0E103F0A0E10000B0E367
:100314000010B0E30040B0E10150B0E138009FE5C7
:10032400000050E30100000A30009FE50B0500EBDC
:10033400370400EB0400B0E10510B0E1FA0100FA63
:10034400260400EB0000080000000000000000008C
:10035400000000004C040020C405002064170008BD
:100364008417000880B483B000AF0346FB710E4BC2
:100374001B680D4A23F004031360FB79DB08DAB22F
:100384000A4B1A70094B1B789BB21A465201D21AB7
:1003940092001344DB009AB2054B1A8000BF0C375D
:1003A400BD4680BC704700BF10E000E06804002038
:1003B4006A04002080B485B000AF7860124B1B78CB
:1003C4001946124A7B6803FB01F353600F4B00226A
:1003D4009A600E4B01221A600C4B1B68FB60FB6891
:1003E40003F00103002B04D0FB6803F48033002BDB
:1003F400F2D0064B00221A60044B00229A6000BF20
:100404001437BD4680BC70476804002010E000E04B
:1004140080B485B000AF0346FB80FB88124A128883
:100424001146124A01FB03F35360104B00229A60F9
:100434000E4B01221A600D4B1B68FB60FB6803F036
:100444000103002B04D0FB6803F48033002BF2D0AB
:10045400064B00221A60054B00229A6000BF143735
:10046400BD4680BC704700BF6A04002010E000E075
:1004740080B400AF194B9B69184A43F0040393619D
:10048400164B9B69154A43F020039361144B5B6838
:10049400134A23F00F035360114B5B68104A43F077
:1004A400030353600E4BDB680D4A43F48073D3603F
:1004B4000C4B1B680B4A23F470631360094B1B68D5
:1004C400084A43F440731360064BDB68054A43F063
:1004D4000403D36000BFBD4680BC704700100240D7
:1004E40000080140001401404C19000800000020DD
:1004F4004C0400204C040020C405002080B483B0C8
:1005040000AF786039603B6823F0604323F07F03D9
:1005140004497A6813438B6000BF0C37BD4680BC26
:10052400704700BF00ED00E080B485B000AF034623
:10053400FB71FB79DB4303F00703FB60FB681B02E1
:10054400FB600D4BDB68BB60BA684FF6FF031340DA
:10055400BB60BB6843F0BF6343F40033BB60BA685D
:10056400FB681343BB60044ABB68D36000BF143705
:10057400BD4680BC704700BF00ED00E090B585B07B
:1005840000AF0446084611461A462346FB7103464B
:10059400BB710B467B7113463B713B791846FFF7E1
:1005A400C3FFFA793B79C3F1040302FA03F3FB6056
:1005B400BA793B790F2141FA03F313401A46FB68D9
:1005C4001343FB60FB6803F00F03FB60134A7B7962
:1005D4005B09D8B2034652F823307A7902F01F023D
:1005E400012101FA02F214460C4A0146234342F85F
:1005F40021300A4A7B79134493F80033D9B2FB685B
:10060400DBB21B01DAB205487B790A43D2B2034458
:1006140083F8002300BF1437BD4690BD00E100E01D
:1006240080B485B000AF0346FB710B46BB71134623
:100634007B71BB799B08FB73BB7903F00303DBB2CB
:100644009B00BB73294B9B69284A43F001039361C8
:10065400274AFB7B023352F82320BB7B0F2101FA8C
:1006640003F3DB4318462249FB7B0240023341F883
:1006740023201F4AFB7B023352F82320F979BB7BEA
:1006840001FA03F318461A49FB7B0243023341F88B
:100694002320184B1B68BA79012101FA02F2114692
:1006A400144A0B4313607B7903F00103002B09D038
:1006B400104BDB68BA79012101FA02F211460D4AA6
:1006C4000B43D3607B7903F00203002B09D0094B61
:1006D4009B68BA79012101FA02F21146054A0B43DB
:1006E400936000BF1437BD4680BC704700100240C1
:1006F400000001400004014080B500AF1C4B002203
:100704001A611B4B0022DA60194B14225A61184BF0
:1007140000229A61164B0022DA61154B1B68144AB9
:1007240043F001031360124B5A681149114B1340F3
:100734004B600F4B1B680E4A23F0847323F4803301
:1007440013600B4B1B680A4A23F480231360084B85
:100754005B68074A23F4FE035360054B00229A604A
:1007640000214FF00060FFF7C9FE00BF80BD00BF4D
:10077400001002400000FFF880B400AF104B1B696A
:100784000F4A43F0040313610E4BDB690D4A43F037
:100794008053D3610C4B5B680B4A43F48073536002
:1007A400094B1B68084A43F004031360064B1B689B
:1007B400054A43F00203136000BFBD4680BC704786
:1007C40000ED00E0001002400070004080B400AF73
:1007D400034B044ADA6000BFBD4680BC704700BFCB
:1007E40000ED00E00400FA0580B485B000AF0346D4
:1007F400FB71FB79FB60FB685B06FB600B4B9B6941
:100804000A4A43F001039361094B5B68084A23F0E9
:10081400E0635360064B5A680549FB6813434B6019
:1008240000BF1437BD4680BC704700BF00100240B3
:100834000000014080B584B000AF0346FB71002383
:10084400FB73FFF759FF244B1B68234A43F480339F
:10085400136000BF204B1B685B0C002BFAD01E4BAF
:100864004FF480625A60FB79023BFB711A4B5B6860
:10087400FA7992041146184A0B435360164B5B688D
:10088400154A43F480335360144B1B68134A43F0F6
:1008940032031360104B1B680F4A43F080731360DC
:1008A40000BF0D4B1B685B0E002BFAD00A4B5B6834
:1008B400094A43F00203536007E0074B5B689B0857
:1008C400FB73FB7B03F00303FB73FB7B022BF4D171
:1008D40000BF1037BD4680BD00100240002002401A
:1008E40080B500AF154B1B68144A43F00103136035
:1008F400124B5A681149124B13404B600F4B1B6843
:100904000E4A23F0847323F4803313600B4B1B686B
:100914000A4A23F480231360084B5B68074A23F4D4
:10092400FE035360054B4FF41F029A6000F078F801
:10093400044B4FF000629A6000BF80BD001002407B
:100944000000FFF800ED00E080B485B000AF0023A4
:10095400FB600023BB6000237B602C4B5B6803F0CF
:100964000C03FB60FB68042B07D0082B09D0002B79
:1009740033D1274B274A1A6033E0254B254A1A60A6
:100984002FE0224B5B6803F47013BB601F4B5B6862
:1009940003F480337B60BB689B0C0233BB607B68D1
:1009A400002B06D1BB681C4A02FB03F3184A1360F0
:1009B40017E0164B5B6803F40033002B06D0BB68CA
:1009C400154A02FB03F3124A13600AE0BB68114A9A
:1009D40002FB03F30E4A136003E00D4B0D4A1A6049
:1009E40000BF0A4B5B681B0903F00F030B4AD35C7F
:1009F400DBB2FB60064B1A68FB6822FA03F3044A75
:100A0400136000BF1437BD4680BC7047001002401D
:100A14000400002000127A0000093D0008000020B4
:100A240080B500AF00F002F800BF80BD80B483B091
:100A340000AF00237B6000233B603A4B1B68394ABC
:100A440043F480331360374B1B6803F400333B607B
:100A54007B6801337B603B68002B03D17B68B3F573
:100A6400A06FF0D12F4B1B6803F40033002B02D08E
:100A740001233B6001E000233B603B68012B4BD129
:100A8400294B1B68284A43F010031360264B1B684C
:100A9400254A23F003031360234B1B68224A43F0C7
:100AA400020313601F4B1F4A5B6853601D4B1D4AB2
:100AB4005B6853601B4B5B681A4A43F48063536062
:100AC400184B5B68174A23F47C135360154B5B681F
:100AD400144A43F4E8135360124B1B68114A43F061
:100AE4008073136000BF0F4B1B6803F00073002B6F
:100AF400F9D00C4B5B680B4A23F003035360094B9A
:100B04005B68084A43F00203536000BF054B5B680F
:100B140003F00C03082BF9D100BF0C37BD4680BC91
:100B2400704700BF001002400020024080B500AFB3
:100B34000920FFF77FFE4820FFF714FCFFF798FC1D
:100B44000A4B01221A600A4B00221A604FF47A7091
:100B5400FFF75EFC054B00221A60054B01221A6068
:100B64004FF47A70FFF754FCEAE700BFA00121427A
:100B74008881224280B483B000AF786000BF094B03
:100B84001B889BB203F04003002BF8D07B68DAB2D9
:100B9400044B92B29A80002318460C37BD4680BCA1
:100BA400704700BF0038014080B483B000AF786064
:100BB400396000BF084B1B889BB203F04003002B35
:100BC400F8D07B68DAB2044B92B29A807B681846FC
:100BD4000C37BD4680BC70470038014080B483B0F8
:100BE40000AF254B1B889BB203F02003002B3ED0A3
:100BF400214B9B889BB2FB71204B1B881BB2002BA3
:100C040035DB1E4B1B8803F48043002B10D0FB798B
:100C14000A2B03D0194B00221A8028E0174B1B889B
:100C24006FEA43436FEA53439AB2144B1A801EE0AF
:100C3400FB790D2B07D1114B1B8843F480439AB2E7
:100C44000E4B1A8013E00D4B1B88C3F30D030C49A4
:100C5400FA79CA54094B1B8801339AB2074B1A809C
:100C6400064B1B88C72B02D9044B00221A8000BFF5
:100C74000C37BD4680BC7047003801406C0400202E
:100C84007004002090B585B000AF786039607B684F
:100C94003F4A02FB03F3184600F066F904463B683A
:100CA4001B01184600F060F903461946204600F07F
:100CB40099FA0346FB60F86800F044FB03467B8125
:100CC4007B89184600F054F903461946F86800F089
:100CD4006BF803464FF08341184600F0B7F903461A
:100CE400184600F02FFB03463B817B891B017B8167
:100CF4007A893B8913447B81264B9B69254A43F0BF
:100D040004039361234B9B69224A43F48043936118
:100D1400214B5B68204A23F47F6353601E4B5B685E
:100D24001D4A43F40B6353601A4BDB68194A43F4BE
:100D34008043D360174BDB68164A23F48043D360A7
:100D4400164A7B891381154B9B899BB2134A43F442
:100D5400005343F00C039BB29381104B9B899BB2CD
:100D64000E4A43F480739BB293810C4B9B899BB2D4
:100D74000A4A43F020039BB29381022325220321D4
:100D84000320FFF7FBFB00BF1437BD4690BD00BF37
:100D940040420F00001002400008014000380140AA
:100DA400020120E2000000EA021121E28020B0E109
:100DB4008130B0110300321142CCF01143CCF01158
:100DC4004700000A222CA0E1233C72E0032082C0E9
:100DD400011020C0000021C0011020C0003063B207
:100DE400190053E31EFF2F81020110E3020580E383
:100DF400FF04C0E300006012020111E3021581E365
:100E0400FF14C1E300106112030032E12E00000A56
:100E1400012042E2510390E0203063E21113A0E18B
:100E2400023100E20100005A001071E20000E0E229
:100E3400020550E30B00003A010450E30400003AB9
:100E4400A000B0E16110A0E1012082E2FE0052E3C3
:100E54003800002A020151E3820BA0E00100C00324
:100E6400030080E11EFF2FE18110B0E10000A0E04B
:100E7400020510E3012042E2F5FFFF1A20C6B0E1AB
:100E84000006A0010C204202FF0810E30004A001A8
:100E9400082042020F0610E30002A00104204202CF
:100EA400030510E30001A00102204202020550E301
:100EB4008000A0310020D2E2820B80A0002062B228
:100EC400030080A1300283B11EFF2FE1000032E352
:100ED400021521E2020520020120820201304312A0
:100EE400CAFFFFEA8130A0E142CCF0E143CCF0112B
:100EF4001300000A030032E10200000A000032E39A
:100F04000100A0011EFF2FE1010030E10000A01349
:100F14001EFF2F11FF0412E30200001A8000B0E14B
:100F2400020180231EFF2FE1022492E20205803297
:100F34001EFF2F31023100E27F0483E3020580E3C8
:100F44001EFF2FE1422CF0E10100A011433CF0010F
:100F54000010A0118024B0E18134B00101003001FF
:100F6400010580131EFF2FE10030A0E3010000EA19
:100F7400023110E20000604200C0B0E11EFF2F0108
:100F84004B3483E30010A0E10000A0E30F0000EA6B
:100F9400012090E11EFF2F010030A0E3050000EACC
:100FA400012090E11EFF2F01023111E20100005ADD
:100FB400000070E20010E1E201C0B0E100C0A00155
:100FC4000010A0010000A0035B3483E3013243025C
:100FD400023543E21720A0E301085CE32CC8A021FA
:100FE40010204222010C5CE32CC4A02108204222E0
:100FF40010005CE32CC2A0210420422204005CE324
:1010040002204222AC204230AC2152E0823B43E039
:10101400060000BA113283E010C2A0E1202062E28F
:1010240002015CE33002A3E00100C0031EFF2FE1D4
:10103400202082E211C2A0E1202062E28C0090E133
:101044003102A3E0AC0FC0011EFF2FE1FFC0A0E3FB
:10105400A02B1CE0A13B1C100C0032110C0033111E
:101064003E00000A032082E001C020E08004B0E1D9
:101074008114B0111000000A0233A0E3A00283E13E
:10108400A11283E1903181E002010CE2020551E3F7
:101094008110A031A31F81318330A031010080E190
:1010A4007F20C2E2FD0052E30F00008A020153E3F5
:1010B400820BA0E00100C0031EFF2FE1000030E31B
:1010C40002C10CE28114A001A0048CE1A10480E11E
:1010D4007F2052E2FF3072C2820B80C11EFF2FC1FB
:1010E400020580E30030A0E3012052E2350000CA8B
:1010F400190072E3020100D21EFF2FD1002062E228
:101104008010B0E13112A0E1202062E210C2A0E11F
:101114006100B0E10000A0E28C3093E1AC0FC001AB
:101124001EFF2FE1000032E302C100E28000A001B3
:101134000205100301204202FBFFFF0A0C0080E1BC
:10114400000033E302C101E28110A0010205110392
:1011540001304302FBFFFF0A0C1081E1C0FFFFEAEC
:10116400A13B0CE00C0032E10C0033110500000A35
:1011740002C1D0E302C1D113E9FFFF1A010020E04C
:10118400020100E21EFF2FE1000030E302013013F0
:101194000100A00100003113020131130D00000A07
:1011A4000C0032E10100001A8024B0E10900001AA9
:1011B4000C0033E10200001A8134B0E10100A011F7
:1011C4000400001A010020E0020100E27F0480E331
:1011D400020580E31EFF2FE17F0480E3030580E323
:1011E4001EFF2FE1FFC0A0E3A02B1CE0A13B1C10BD
:1011F4000C0032110C0033113A00000A032042E0C3
:1012040001C020E08114B0E18004A0E11C00000AC8
:101214000132A0E3211283E1203283E102010CE2D6
:10122400010053E18330A0317D20A2E202C5A0E396
:10123400010053E1013043200C008021A10053E15F
:10124400A1304320AC008021210153E1213143200E
:101254002C018021A10153E1A1314320AC01802163
:101264000332B0E12CC2B011F0FFFF1AFD0052E3CB
:101274009DFFFF8A010053E1820BA0E00100C0033F
:101284001EFF2FE102C10CE2A0048CE17F2092E258
:10129400FF3072C2820B80C11EFF2FC1020580E3A2
:1012A4000030A0E3012052E28FFFFFEA000032E3A6
:1012B40002C100E28000A0010205100301204202E5
:1012C400FBFFFF0A0C0080E1000033E302C101E2EE
:1012D4008110A0010205110301304302FBFFFF0A44
:1012E4000C1081E1C4FFFFEAA13B0CE00C0032E1E9
:1012F4000500001A8024B0E1B6FFFF1A0C0033E1A8
:10130400AFFFFF1A0100A0E1B2FFFFEA0C0033E1D6
:101314000300001A8134B0E197FFFF0A0100A0E145
:10132400ACFFFFEA02C1D0E302C1D113DEFFFF1A12
:101334000221D0E3A2FFFF1A0231D1E38EFFFF1A8C
:10134400A4FFFFEA8020B0E10800002A7F0452E3F2
:101354000600003A9E30A0E3222C53E00500004A28
:101364000034A0E1023183E33302A0E11EFF2FE148
:101374000000A0E31EFF2FE1610072E30100001AE8
:101384008024B0E10100001A0000E0E31EFF2FE119
:101394000000A0E31EFF2FE1002103E00A4B5B588D
:1013A4004350043109480A4B42189A42F6D3094A79
:1013B40002E0002342F8043B074B9A42F9D3FFF7BB
:1013C4008FFAFFF7B3FB70474C19000800000020A8
:1013D4004C0400204C040020C4050020FEE700005B
:1013E40010402DE90010A0E30040A0E1790000EBDB
:1013F40018309FE5000093E53C3090E5000053E38E
:101404000FE0A01113FF2F110400A0E1390100EB3C
:101414000019000870402DE96C609FE56C509FE551
:10142400056046E04661B0E10700000A0040A0E321
:10143400045045E2014084E20430B5E50FE0A0E148
:1014440013FF2FE1040056E1F9FFFF1A40609FE506
:1014540040509FE5056046E0280100EB4661B0E19D
:101464000700000A0040A0E3045045E2014084E282
:101474000430B5E50FE0A0E113FF2FE1040056E1CD
:10148400F9FFFF1A7040BDE81EFF2FE14019000864
:10149400401900084819000840190008030010E327
:1014A4004000000A000052E3012042E21EFF2F0127
:1014B400FFC001E20030A0E1020000EA012042E2A4
:1014C400010072E31EFF2F0101C0C3E4030013E314
:1014D400F9FFFF1A030052E32A00009A30402DE975
:1014E400FFE001E20EE48EE10F0052E30EE88EE12C
:1014F4001000009A105042E22552A0E1204083E2FD
:10150400054284E010C083E210E00CE50CE00CE539
:1015140008E00CE504E00CE510C08CE204005CE19A
:10152400F8FFFF1A0F2002E2015085E2030052E3A4
:10153400053283E00A00009A0340A0E102C0A0E162
:1015440004C04CE203005CE304E084E4FBFFFF8A94
:1015540004C042E203C0CCE304C08CE20C3083E05C
:10156400032002E2000052E3FF1001120220831064
:101574000200000A0110C3E4030052E1FCFFFF1A59
:101584003040BDE81EFF2FE1000052E31EFF2F0193
:10159400FF1001E2022083E00110C3E4030052E1E2
:1015A400FCFFFF1A1EFF2FE10030A0E1C8FFFFEA95
:1015B40018309FE5000053E31EFF2F0110402DE972
:1015C4000C009FE5650000EB1040BDE81EFF2FE115
:1015D4000000000084170008F04F2DE970319FE5EA
:1015E40014D04DE20C008DE5000093E50170A0E1FC
:1015F400790000EB5C319FE5003093E504308DE524
:10160400523F83E208308DE504309DE5486193E55F
:10161400000056E33900000A0180A0E308A09DE51C
:10162400044096E5015054E22500004A014084E25A
:101634000090A0E3044186E0030000EA015045E283
:10164400010075E3044044E21D00000A000057E372
:101654000200000A003194E5070053E1F6FFFF1A87
:10166400043096E5013043E2050053E1003094E58F
:101674000450860500908415000053E3EEFFFF0A32
:10168400881196E51825A0E1010012E104B096E561
:101694002000001A0FE0A0E113FF2FE1043096E5CB
:1016A4000B0053E1D7FFFF1A00309AE5060053E11F
:1016B400D4FFFF1A015045E2010075E3044044E2FF
:1016C400E1FFFF1A90309FE5000053E30B00000A8E
:1016D400043096E5000053E3003096E51500001A47
:1016E400000053E31300000A0600A0E100308AE57D
:1016F40000F020E300609AE5000056E3C7FFFF1AFC
:101704004C309FE5000093E5390000EB14D08DE2E6
:10171400F04FBDE81EFF2FE18C1196E5010012E1A8
:10172400801094E50600001A0C009DE50FE0A0E18E
:1017340013FF2FE1D8FFFFEA06A0A0E10360A0E1B8
:10174400ECFFFFEA0100A0E10FE0A0E113FF2FE1AD
:10175400D1FFFFEA4804002000190008000000003F
:101764000030A0E310402DE90010A0E10320A0E127
:101774000300A0E11F0000EB1040BDE81EFF2FE1B5
:1017840070402DE934409FE534509FE5054044E026
:101794004441B0E10600000A045185E0014044E2FE
:1017A400043035E50FE0A0E113FF2FE1000054E31E
:1017B400F9FFFF1A570000EB7040BDE81EFF2FE150
:1017C4004C190008481900081EFF2FE11EFF2FE1E5
:1017D4001EFF2FE11EFF2FE11EFF2FE11EFF2FE151
:1017E4000100A0E31EFF2FE10100A0E31EFF2FE193
:1017F4001EFF2FE11EFF2FE1F0472DE9E8509FE582
:101804000060A0E1000095E50290A0E10380A0E162
:101814000170A0E1F0FFFFEBD0309FE5004093E5BD
:10182400483194E5000053E3533F8402042093E5D8
:10183400483184051F0052E3010082D20F0000DA10
:10184400AC309FE5000053E32300000A190EA0E327
:1018540000F020E3003050E21F00000A0010A0E373
:101864000100A0E30120A0E148C194E5041083E550
:1018740000C083E5483184E5881183E58C1183E554
:10188400000056E30700001A022082E2040083E508
:10189400000095E5027183E7D5FFFFEB0000A0E3AC
:1018A400F047BDE81EFF2FE10110A0E302E183E051
:1018B40088908EE588C193E51112A0E101C08CE106
:1018C40088C183E508818EE5020056E38CC1930547
:1018D40001108C018C118305EAFFFFEA000095E5F5
:1018E400C3FFFFEB0000E0E3ECFFFFEA4804002045
:1018F4000019000800000000FEFFFFEA200000209D
:101904000DC0A0E1F8DF2DE904B04CE228D04BE291
:10191400F06F9DE81EFF2FE10DC0A0E1F8DF2DE977
:1019240004B04CE228D04BE2F06F9DE81EFF2FE19B
:0419340000000000AF
:081938001CE9FF7F0100000023
:08194000B415000824020008A0
:04194800E4010008AE
:10194C000000000000A24A0400000000000000009B
:10195C000102030406070809200000200000000013
:10196C00000000000C03002074030020DC030020A6
:10197C00000000000000000000000000000000005B
:10198C00000000000000000000000000000000004B
:10199C00000000000000000000000000000000003B
:1019AC00000000000000000000000000000000002B
:1019BC00000000000000000000000000000000001B
:1019CC00000000000000000000000000000000000B
:1019DC0000000000000000000000000000000000FB
:1019EC0000000000000000000000000000000000EB
:1019FC0000000000000000000000000000000000DB
:101A0C0000000000000000000100000000000000C9
:101A1C000E33CDAB34126DE6ECDE05000B0000008E
:101A2C0000000000000000000000000000000000AA
:101A3C00000000000000000000000000000000009A
:101A4C00000000000000000000000000000000008A
:101A5C00000000000000000000000000000000007A
:0C1D8C000000000000000000A005002086
:040000050800139D3F
:00000001FF
