:020000040800F2
:1000000000000120E50A0008290B0008290B000860
:10001000290B0008290B0008290B0008000000002C
:10002000000000000000000000000000290B000894
:10003000290B000800000000290B0008290B00080C
:10004000290B0008290B0008290B0008290B0008C0
:10005000290B0008290B0008290B0008290B0008B0
:10006000290B0008290B0008290B0008290B0008A0
:10007000290B0008290B0008290B0008290B000890
:10008000290B0008290B0008290B0008290B000880
:10009000290B0008290B0008290B0008290B000870
:1000A000290B0008290B0008290B0008290B000860
:1000B000290B0008290B0008290B0008290B000850
:1000C000290B0008290B0008290B0008290B000840
:1000D000290B0008290A0008290B0008290B000831
:1000E000290B0008290B0008290B0008290B000820
:1000F000290B0008290B0008290B0008290B000810
:10010000290B0008290B0008290B0008290B0008FF
:10011000290B0008290B0008290B0008290B0008EF
:10012000290B0008290B0008290B0008290B0008DF
:1001300000000000000000000000000000000000BF
:1001400000000000000000000000000000000000AF
:10015000000000000000000000000000000000009F
:10016000000000000000000000000000000000008F
:10017000000000000000000000000000000000007F
:10018000000000000000000000000000000000006F
:10019000000000000000000000000000000000005F
:1001A000000000000000000000000000000000004F
:1001B000000000000000000000000000000000003F
:1001C000000000000000000000000000000000002F
:1001D000000000000000000000000000000000001F
:0401E0005FF8E0F1F3
:1001E40080B483B000AF0346FB710E4B1B680D4A0D
:1001F40023F004031360FB79DB08DAB20A4B1A70AC
:10020400094B1B789BB21A465201D21A920013442E
:10021400DB009AB2054B1A8000BF0C37BD4680BC88
:10022400704700BF10E000E014000020160000201A
:1002340080B485B000AF7860124B1B781946124A1F
:100244007B6803FB01F353600F4B00229A600E4B53
:1002540001221A600C4B1B68FB60FB6803F001036E
:10026400002B04D0FB6803F48033002BF2D0064B40
:1002740000221A60044B00229A6000BF1437BD4666
:1002840080BC70471400002010E000E080B485B00A
:1002940000AF0346FB80FB88124A12881146124ABB
:1002A40001FB03F35360104B00229A600E4B0122B2
:1002B4001A600D4B1B68FB60FB6803F00103002B05
:1002C40004D0FB6803F48033002BF2D0064B0022E9
:1002D4001A60054B00229A6000BF1437BD4680BCEB
:1002E400704700BF1600002010E000E080B400AFAB
:1002F400194B9B69184A43F004039361164B9B699D
:10030400154A43F020039361144B5B68134A23F0AE
:100314000F035360114B5B68104A43F003035360AF
:100324000E4BDB680D4A43F48073D3600C4B1B689F
:100334000B4A23F470631360094B1B68084A43F4A7
:1003440040731360064BDB68054A43F00403D36033
:1003540000BFBD4680BC7047001002400008014049
:10036400001401407F0C000800000020140000204D
:10037400140000204C01002080B483B000AF7860EA
:1003840039603B6823F0604323F07F0304497A68B3
:1003940013438B6000BF0C37BD4680BC704700BF61
:1003A40000ED00E080B485B000AF0346FB71FB793B
:1003B400DB4303F00703FB60FB681B02FB600D4B90
:1003C400DB68BB60BA684FF6FF031340BB60BB68D1
:1003D40043F0BF6343F40033BB60BA68FB68134364
:1003E400BB60044ABB68D36000BF1437BD4680BC01
:1003F400704700BF00ED00E090B585B000AF044643
:10040400084611461A462346FB710346BB710B4648
:100414007B7113463B713B791846FFF7C3FFFA79AA
:100424003B79C3F1040302FA03F3FB60BA793B7925
:100434000F2141FA03F313401A46FB681343FB6090
:10044400FB6803F00F03FB60134A7B795B09D8B2A6
:10045400034652F823307A7902F01F02012101FA8F
:1004640002F214460C4A0146234342F821300A4A58
:100474007B79134493F80033D9B2FB68DBB21B01D8
:10048400DAB205487B790A43D2B2034483F80023E5
:1004940000BF1437BD4690BD00E100E080B485B0D4
:1004A40000AF0346FB710B46BB7113467B71BB79EE
:1004B4009B08FB73BB7903F00303DBB29B00BB73A4
:1004C400294B9B69284A43F001039361274AFB7B2C
:1004D400023352F82320BB7B0F2101FA03F3DB43E1
:1004E40018462249FB7B0240023341F823201F4A6D
:1004F400FB7B023352F82320F979BB7B01FA03F327
:1005040018461A49FB7B0243023341F82320184B57
:100514001B68BA79012101FA02F21146144A0B430D
:1005240013607B7903F00103002B09D0104BDB68C7
:10053400BA79012101FA02F211460D4A0B43D36044
:100544007B7903F00203002B09D0094B9B68BA792D
:10055400012101FA02F21146054A0B43936000BFE0
:100564001437BD4680BC70470010024000000140B3
:100574000004014080B500AF1C4B00221A611B4BE4
:100584000022DA60194B14225A61184B00229A6136
:10059400164B0022DA61154B1B68144A43F0010321
:1005A4001360124B5A681149114B13404B600F4BA7
:1005B4001B680E4A23F0847323F4803313600B4BBF
:1005C4001B680A4A23F480231360084B5B68074ABC
:1005D40023F4FE035360054B00229A6000214FF080
:1005E4000060FFF7C9FE00BF80BD00BF00100240DD
:1005F4000000FFF880B400AF104B1B690F4A43F0B2
:10060400040313610E4BDB690D4A43F08053D3613D
:100614000C4B5B680B4A43F480735360094B1B68B3
:10062400084A43F004031360064B1B68054A43F071
:100634000203136000BFBD4680BC704700ED00E0BC
:10064400001002400070004080B400AF034B044A25
:10065400DA6000BFBD4680BC704700BF00ED00E01B
:100664000400FA0580B485B000AF0346FB71FB7942
:10067400FB60FB685B06FB600B4B9B690A4A43F01B
:1006840001039361094B5B68084A23F0E0635360FC
:10069400064B5A680549FB6813434B6000BF143787
:1006A400BD4680BC704700BF0010024000000140FE
:1006B40080B584B000AF0346FB710023FB73FFF7E2
:1006C40059FF244B1B68234A43F48033136000BF53
:1006D400204B1B685B0C002BFAD01E4B4FF480623E
:1006E4005A60FB79023BFB711A4B5B68FA799204FE
:1006F4001146184A0B435360164B5B68154A43F482
:1007040080335360144B1B68134A43F03203136065
:10071400104B1B680F4A43F08073136000BF0D4BEE
:100724001B685B0E002BFAD00A4B5B68094A43F046
:100734000203536007E0074B5B689B08FB73FB7B7A
:1007440003F00303FB73FB7B022BF4D100BF1037D0
:10075400BD4680BD001002400020024080B500AFBD
:10076400154B1B68144A43F001031360124B5A687B
:100774001149124B13404B600F4B1B680E4A23F078
:10078400847323F4803313600B4B1B680A4A23F4ED
:1007940080231360084B5B68074A23F4FE0353600D
:1007A400054B4FF41F029A6000F078F8044B4FF0A9
:1007B40000629A6000BF80BD001002400000FFF894
:1007C40000ED00E080B485B000AF0023FB6000239F
:1007D400BB6000237B602C4B5B6803F00C03FB6065
:1007E400FB68042B07D0082B09D0002B33D1274BEF
:1007F400274A1A6033E0254B254A1A602FE0224B22
:100804005B6803F47013BB601F4B5B6803F48033B5
:100814007B60BB689B0C0233BB607B68002B06D1FA
:10082400BB681C4A02FB03F3184A136017E0164B1B
:100834005B6803F40033002B06D0BB68154A02FB47
:1008440003F3124A13600AE0BB68114A02FB03F384
:100854000E4A136003E00D4B0D4A1A6000BF0A4BA9
:100864005B681B0903F00F030B4AD35CDBB2FB602C
:10087400064B1A68FB6822FA03F3044A136000BFAC
:100884001437BD4680BC70470010024000000020B1
:1008940000127A0000093D000400002080B500AF7A
:1008A40000F002F800BF80BD80B483B000AF002325
:1008B4007B6000233B603A4B1B68394A43F4803326
:1008C4001360374B1B6803F400333B607B680133D0
:1008D4007B603B68002B03D17B68B3F5A06FF0D13C
:1008E4002F4B1B6803F40033002B02D001233B6021
:1008F40001E000233B603B68012B4BD1294B1B6873
:10090400284A43F010031360264B1B68254A23F042
:1009140003031360234B1B68224A43F00203136052
:100924001F4B1F4A5B6853601D4B1D4A5B68536035
:100934001B4B5B681A4A43F480635360184B5B6833
:10094400174A23F47C135360154B5B68144A43F431
:10095400E8135360124B1B68114A43F08073136011
:1009640000BF0F4B1B6803F00073002BF9D00C4B36
:100974005B680B4A23F003035360094B5B68084A26
:1009840043F00203536000BF054B5B6803F00C03A4
:10099400082BF9D100BF0C37BD4680BC704700BF9F
:1009A400001002400020024080B500AF0920FFF78C
:1009B4007FFE4820FFF714FCFFF798FC0A4B012246
:1009C4001A600A4B01221A604FF47A70FFF75EFC3A
:1009D400054B00221A60054B00221A604FF47A700E
:1009E400FFF754FCEAE700BFA001214288812242BC
:1009F40080B483B000AF7860396000BF084B1B88B7
:100A04009BB203F04003002BF8D07B68DAB2044BAE
:100A140092B29A807B6818460C37BD4680BC7047FA
:100A24000038014080B483B000AF254B1B889BB2D3
:100A340003F02003002B3ED0214B9B889BB2FB711B
:100A4400204B1B881BB2002B35DB1E4B1B8803F489
:100A54008043002B10D0FB790A2B03D0194B0022C2
:100A64001A8028E0174B1B886FEA43436FEA53430D
:100A74009AB2144B1A801EE0FB790D2B07D1114B4F
:100A84001B8843F480439AB20E4B1A8013E00D4B3B
:100A94001B88C3F30D030C49FA79CA54094B1B880C
:100AA40001339AB2074B1A80064B1B88C72B02D915
:100AB400044B00221A8000BF0C37BD4680BC70472F
:100AC40000380140180000201C00002080B483B0CE
:100AD40000AF7860396000BF0C37BD4680BC7047FA
:100AE400002103E00A4B5B584350043109480A4B88
:100AF40042189A42F6D3094A02E0002342F8043B22
:100B0400074B9A42F9D3FFF729FEFFF74DFF7047D1
:100B14007F0C0008000000201400002014000020B6
:080B24004C010020FEE7000077
:100C7F0000A24A040000000000000000010203046B
:040C8F000607080943
:0400000508000AE500
:00000001FF
